:020000040000FA
:060000000A128A110C280F
:10000800FE00030EF8000A08F9000A128A111628E1
:100018000A128A110F28FA01FB01FC0183010A1256
:100028008A117329831203130C1F1B281C28742898
:100038000A128A11E0210A128A117008F60076085D
:10004800FC00F1307C02031C2A282B284A28FA01DC
:100058007A08F6000310760C803E831203139B0087
:100068009D12831603131E08F60007300310F60CC2
:10007800FF3E031D3A287608F700F70E8312031394
:100088001D087706EF3977069D00712810307C022D
:1000980003184F2850287128FF30F6007608FA0018
:1000A8007A08F6000310760C803E831203139B0037
:1000B8009D16831603131E08F60007300310F60C6E
:1000C800FF3E031D62287608F700F70E831203131C
:1000D8001D087706EF3977069D00831203130C136A
:1000E8008C1D77287828D1281412141B7C287D2889
:1000F8008128941F8028812888281308F60076080C
:10010800FB0014139413141683160313941A8D28E2
:100118008E28A628141991289228A628831203133A
:100128001308F6007608FB008C11141683160313C7
:10013800141C9F28A0289A28A630F600F60BA2289F
:100148000000CE28941AA928AA28CE28141DAD2864
:10015800AE28CE28831203131308F6007608FB0096
:1001680083160313141083120313851CBC28BD289F
:10017800C028FF309300C2287C0893001416A630CC
:10018800F600F60BC5280000831603131418CD28B3
:10019800CE28C828831203138C1179088A00780E98
:1001A8008300FE0E7E0E09000130831603178800B7
:1001B80089010330831603138500880189018601AC
:1001C800871083120313850186018701880189013D
:1001D800831603130F178F160F160F140030831290
:1001E8000313A000A1000A128A11A1210A128A1180
:1001F8008B170B17FA308316031392003F308312C4
:10020800031397051708F0390C3897001D08F039C3
:100218000C389D000F3095000F309B00CF309705AC
:100228009D121D128C109214121412158C1C1D296B
:100238001E291A298C1070300A128A11C4210A1238
:100248008A1108005D292408840022088000840A95
:10025800230880002008A500A50DA50D1F08250668
:10026800C33925069F000F3083120313A500A50B81
:100278003B293E29831203139F1472292408840002
:1002880022088000840A230880002008A500A50D04
:10029800A50D1F082506C33925069F000F308312B8
:1002A8000313A500A50B56295929831203139F147C
:1002B8007229831203131F0CA500250C0F39A60001
:1002C800A7012708003A03196A2972292608003A63
:1002D80003192729013A03194229722908000A1229
:1002E8008A11D8200A128A11831203139F147C08DA
:1002F8008312031386000030A000A1007C08A80028
:10030800A9012808A2002908A3007C30AA002A080D
:10031800A4000A128A1126210A128A111A3083129D
:100328000313A900F730A800A80B9829A90B98294E
:100338009D297B290A128A110C28831203131F1482
:100348002008A200A20DA20D1F082206C33922060A
:100358009F00203083120313A200A20BB1290000D2
:10036800831203131F083F3940389F008316031375
:100378009F131F129F120C17831203130C130800EC
:1003880083120313A000200883160313930036304A
:1003980083120313940080308316031394000130F2
:1003A8009100871507168B170B17831203138C11EF
:1003B800831603138C150800831203131E08F2001A
:1003C800F3017208F4007308F5007508F100740869
:0403D800F000080029
:04400E00C420FF3F8C
:00000001FF
