:020000040000FA
:060000000A128A110C280F
:10000800FE00030EF7000A08F8000A128A111528E4
:100018000A128A110F28F901FA0183010A128A11BA
:10002800D828831203130C1F1A281B2827280A1202
:100038008A1171210A128A117008F6007608FA00EE
:10004800831203130C138C1D2A282B2884281412BE
:10005800141B2F2830283428941F332834283B2891
:100068001308F6007608F90014139413141683166F
:100078000313941A4028412859281419442845285C
:100088005928831203131308F6007608F9008C1117
:10009800141683160313141C522853284D28A6300F
:1000A800F600F60B552800008128941A5C285D2874
:1000B8008128141D602861288128831203131308DE
:1000C800F6007608F900831603131410831203133D
:1000D800851C6F2870287328FF30930075287A08CC
:1000E80093001416A630F600F60B78280000831645
:1000F80003131418802881287B28831203138C117A
:1001080078088A00770E8300FE0E7E0E0900C2284A
:100118002408840022088000840A2308800020081C
:10012800A500A50DA50D1F082506C33925069F00A6
:100138000F3083120313A500A50BA028A328831250
:1001480003139F14D7282408840022088000840AF7
:10015800230880002008A500A50DA50D1F08250669
:10016800C33925069F000F3083120313A500A50B82
:10017800BB28BE28831203139F14D72883120313A6
:100188001F0CA500250C0F39A600A7012708003A67
:100198000319CF28D7282608003A03198C28013AD2
:1001A8000319A728D72808000A128A1106210A125B
:1001B8008A11831203139F147A088312031386008B
:1001C8000030A000A1007A08A800A9012808A20010
:1001D8002908A3007A30AA002A08A4000A128A1162
:1001E8008B200A128A111A3083120313A900F730E0
:1001F800A800A80BFD28A90BFD280229E0280A124F
:100208008A110C28013083160317880089010330EE
:10021800831603138500880189018601831203135D
:1002280085018601870188018901831603130F1749
:100238008F160F160F14003083120313A000A100AD
:100248000A128A1132210A128A118B170B17703081
:100258000A128A1155210A128A11080083120313FF
:100268001F142008A200A20DA20D1F082206C339E0
:1002780022069F00203083120313A200A20B4229FA
:100288000000831203131F083F3940389F0083166C
:1002980003139F131F129F120C17831203130C13BF
:1002A800080083120313A000200883160313930089
:1002B800363083120313940080308316031394009E
:1002C80001309100871507168B170B17831203133C
:1002D8008C11831603138C150800831203131E0850
:1002E800F200F3017208F4007308F5007508F100D4
:0602F8007408F00008008C
:04400E00C420FF3F8C
:00000001FF
