:020000040000FA
:060000000A128A110C280F
:10000800FE00030EF1000A08F2000A128A117A298A
:100018000A128A110F28F701F801F901FA0183126F
:100028000313AD01AE01AF01B001B101B201B301DB
:10003800B401B50183010A128A1122280A128A1111
:1000480076220A128A110A128A11B4220A128A1115
:100058000A128A1196220A128A117A03031D352878
:100068003628FD280A128A1134220A128A118312AC
:100078000313A5002508F7000A128A1134220A1270
:100088008A1183120313A5002508AF000A128A11EA
:1000980034220A128A1183120313A5002508F800D6
:1000A8000A128A1134220A128A1183120313A50034
:1000B8002508B0000A128A1134220A128A11831202
:1000C8000313A500A6012508AD002608AE00770891
:1000D8002F07A500A601A60D78082507A700003060
:1000E800031801302607A80030082707A9000030A8
:1000F800031801302807AA00FF302905AB0000309B
:100108002A05AC002E082C06031D8C282D082B066A
:10011800031D8F289028FE280A30F3000030F400D1
:100128007708A500A6012508F5002608F6000A129A
:100138008A1111210A128A11730883120313A70066
:100148002708B1000A30F3000030F4007708A50052
:10015800A6012508F5002608F6000A128A11D921F9
:100168000A128A11730883120313A7002708B20022
:100178000A30F3000030F4007808A500A60125082D
:10018800F5002608F6000A128A1111210A128A11AE
:10019800730883120313A7002708B3000A30F3007B
:1001A8000030F4007808A500A6012508F500260807
:1001B800F6000A128A11D9210A128A1173088312C9
:1001C8000313A7002708F9003108303EA5002508C9
:1001D800B1003208303EA5002508B2003308303E91
:1001E800A5002508B3007908303EA5002508F900C8
:1001F800FE28F8010A3083120313A7002230A60054
:10020800A030A500A50B0629A60B0629A70B0629D1
:10021800000027280A128A110C2883120313A2014E
:10022800F41F172918291F29F309F409F30A0319D8
:10023800F40AA201A20AF61F222923292C29F5096A
:10024800F609F50A0319F60A0130A0002008A206EB
:10025800A301A401730874040319332934296B29F1
:10026800A101A10A422901300310F30DF40DFF3E4C
:10027800031D38290130A0002008A107F41F4529D3
:100288004629372901300310A30DA40DFF3E031D95
:10029800472974087602031D532973087502031C45
:1002A800562957295E297308F5027408031CF603BA
:1002B800F602231401300310F40CF30CFF3E031D67
:1002C8005F290130A102031D6A296B2946292208EA
:1002D80003196F2970297529A309A409A30A031909
:1002E800A40A2408F4002308F30008008312031367
:1002F8008C1D7F298029D2291412141B8429852951
:100308008929941F8829892990291308F0007008E1
:10031800B40014139413141683160313941A95290E
:100328009629AE29141999299A29AE2983120313FB
:100338001308F0007008B4008C1114168316031308
:10034800141CA729A829A229A630F000F00BAA2975
:100358000000CF29941AB129B229CF29141DB52933
:10036800B629CF29831203131308F0007008B400CC
:1003780083160313141078088312031393001416BA
:10038800A630F000F00BC6290000831603131418DA
:10039800CE29CF29C929831203138C1172088A0028
:1003A800710E8300FE0E7E0E090083120313A20154
:1003B800F61FDF29E029E729F509F609F50A0319E7
:1003C800F60AA201A20AF41FEA29EB29F029F30987
:1003D800F409F30A0319F40A730874040319F529D4
:1003E800F629252AA101A10A042A01300310F30DD8
:1003F800F40DFF3E031DFA290130A0002008A107D3
:10040800F41F072A082AF92974087602031D0E2A00
:1004180073087502031C112A122A182A7308F50298
:100428007408031CF603F60201300310F40CF30CF5
:10043800FF3E031D192A0130A102031D242A252A83
:10044800082A22080319292A2A2A2F2AF509F6092F
:10045800F50A0319F60A7608F4007508F30008008F
:10046800F60183120313051C3A2A3B2A352A133056
:10047800F300F30B3D2A402A831203130518452A7B
:10048800462A572A0130F3007608073C013E4E2AD7
:100498000310F30DFF3E031D4C2A7308FF3AF400C6
:1004A8007408F5056A2A0130F3007608073C013E16
:1004B8005F2A0310F30DFF3E031D5D2A7308F40045
:1004C8007408F5040518692A6A2A662A0130F300B7
:1004D8007308F60708307602031C732A742A352A33
:1004E800750808008316031788018901831603130A
:1004F800850188018901860183120313850186011C
:10050800870188018901831603130F178F160F16A9
:100518000F148B170B1780300A128A11CF220A1278
:100528008A110800FA011A30F300F30B992A000027
:10053800831203130518A12AA22AB32A3530F3001F
:10054800F30BA42A83120313051CAB2AAC2AAE2A88
:10055800FA01FA0A1A30F300F30BB02A0000080077
:100568008316031305108312031305102F30F400AC
:10057800BF30F300F30BBE2AF40BBE2AC32A831242
:10058800031305141330F300F30BC82ACB2A831680
:10059800031305140800F30073088316031393006C
:1005A80036308312031394008030831603139400AB
:1005B80001309100871507168B170B178312031349
:0A05C8008C11831603138C15080034
:04400E00C420FF3F8C
:00000001FF
