:020000040000FA
:060000000A128A110C280F
:10000800FE00030EF1000A08F2000A128A1179298B
:100018000A128A110F28F701F801F901FA0183126F
:100028000313AD01AE01AF01B001B101B201B301DB
:10003800B401B50183010A128A1122280A128A1111
:1000480075220A128A110A128A11B3220A128A1117
:100058000A128A1195220A128A117A03031D352879
:100068003628FD280A128A1133220A128A118312AD
:100078000313A5002508F7000A128A1133220A1271
:100088008A1183120313A5002508AF000A128A11EA
:1000980033220A128A1183120313A5002508F800D7
:1000A8000A128A1133220A128A1183120313A50035
:1000B8002508B0000A128A1133220A128A11831203
:1000C8000313A500A6012508AD002608AE00770891
:1000D8002F07A500A601A60D78082507A700003060
:1000E800031801302607A80030082707A9000030A8
:1000F800031801302807AA00FF302905AB0000309B
:100108002A05AC002E082C06031D8C282D082B066A
:10011800031D8F289028FE280A30F3000030F400D1
:100128007708A500A6012508F5002608F6000A129A
:100138008A1110210A128A11730883120313A70067
:100148002708B1000A30F3000030F4007708A50052
:10015800A6012508F5002608F6000A128A11D821FA
:100168000A128A11730883120313A7002708B20022
:100178000A30F3000030F4007808A500A60125082D
:10018800F5002608F6000A128A1110210A128A11AF
:10019800730883120313A7002708B3000A30F3007B
:1001A8000030F4007808A500A6012508F500260807
:1001B800F6000A128A11D8210A128A1173088312CA
:1001C8000313A7002708F9003108303EA5002508C9
:1001D800B1003208303EA5002508B2003308303E91
:1001E800A5002508B3007908303EA5002508F900C8
:1001F800FE28F8010B3083120313A7002630A6004F
:100208005D30A500A50B0629A60B0629A70B062914
:1002180027280A128A110C2883120313A201F41F3B
:10022800162917291E29F309F409F30A0319F40AF0
:10023800A201A20AF61F212922292B29F509F6096C
:10024800F50A0319F60A0130A0002008A206A30146
:10025800A401730874040319322933296A29A101F6
:10026800A10A412901300310F30DF40DFF3E031DCF
:1002780037290130A0002008A107F41F4429452987
:10028800362901300310A30DA40DFF3E031D462996
:1002980074087602031D522973087502031C552938
:1002A80056295D297308F5027408031CF603F60243
:1002B800231401300310F40CF30CFF3E031D5E29D8
:1002C8000130A102031D69296A2945292208031959
:1002D8006E296F297429A309A409A30A0319A40A7A
:1002E8002408F4002308F3000800831203138C1D6C
:1002F8007E297F29D1291412141B8329842988294E
:10030800941F872988298F291308F0007008B400E2
:1003180014139413141683160313941A9429952905
:10032800AD29141998299929AD29831203131308A3
:10033800F0007008B4008C11141683160313141CF3
:10034800A629A729A129A630F000F00BA9290000A9
:10035800CE29941AB029B129CE29141DB429B5295A
:10036800CE29831203131308F0007008B400831613
:100378000313141078088312031393001416A6307D
:10038800F000F00BC5290000831603131418CD29BB
:10039800CE29C829831203138C1172088A00710EA2
:1003A8008300FE0E7E0E090083120313A201F61FBE
:1003B800DE29DF29E629F509F609F50A0319F60AFF
:1003C800A201A20AF41FE929EA29EF29F309F4098D
:1003D800F30A0319F40A730874040319F429F529B4
:1003E800242AA101A10A032A01300310F30DF40DF8
:1003F800FF3E031DF9290130A0002008A107F41FC2
:10040800062A072AF82974087602031D0D2A73089C
:100418007502031C102A112A172A7308F50274089A
:10042800031CF603F60201300310F40CF30CFF3E34
:10043800031D182A0130A102031D232A242A072A92
:1004480022080319282A292A2E2AF509F609F50A65
:100458000319F60A7608F4007508F3000800F60197
:1004680083120313051C392A3A2A342A1330F3005D
:10047800F30B3C2A3F2A831203130518442A452A02
:10048800562A0130F3007608073C013E4D2A031036
:10049800F30DFF3E031D4B2A7308FF3AF40074085E
:1004A800F505692A0130F3007608073C013E5E2A0B
:1004B8000310F30DFF3E031D5C2A7308F400740853
:1004C800F5040518682A692A652A0130F3007308BB
:1004D800F60708307602031C722A732A342A750834
:1004E8000800831603178801890183160313850101
:1004F800880189018601831203138501860187011A
:1005080088018901831603130F178F160F160F140E
:100518008B170B1780300A128A11CE220A128A1101
:100528000800FA011A30F300F30B982A000083122E
:1005380003130518A02AA12AB22A3530F300F30BB9
:10054800A32A83120313051CAA2AAB2AAD2AFA018F
:10055800FA0A1A30F300F30BAF2A000008008316DA
:10056800031305108312031305102F30F400BF3056
:10057800F300F30BBD2AF40BBD2AC22A831203131E
:1005880005141330F300F30BC72ACA2A8316031382
:1005980005140800F300730883160313930036301C
:1005A80083120313940080308316031394000130E0
:1005B8009100871507168B170B17831203138C11DD
:0805C800831603138C150800D3
:04400E00C420FF3F8C
:00000001FF
