:020000040000FA
:060000000A128A110E280D
:10000800FE00030EF8000408F9000A08FA000A12B4
:100018008A11AB2D0A128A1111280A128A11FF2798
:100028000A128A11EF0083160313A001A101A2018D
:10003800A301A401A5018313563084006F300A126E
:100048008A15DE230A128A11FB01FC01FD018301D6
:100058000A128A11902B8312031331088039B600D3
:100068003608BB003108B6003607B7003708C100AC
:10007800B01F3F284028412841144108031945284A
:1000880046285528410A031D4A284B285328003082
:10009800B1000030B0000030AF000030AE00B01743
:1000A8005D280030B1000030B0000030AF000030F3
:1000B800AE0035088039B6003608BB063508B600EC
:1000C8003607B7003708C000B41F6B286C286D28A6
:1000D800401440080319712872288128400A031D1A
:1000E800762877287F280030B5000030B40000302B
:1000F800B3000030B200B41789280030B5000030D2
:10010800B4000030B3000030B200400803198D2855
:100118008E2893284108031D922893289C28003094
:10012800B1000030B0000030AF000030AE008F2BBF
:100138002E08B6003608A00034080A128A15F124E1
:100148000A128A11831203132108C7002008C60067
:100158004608B600B701B801B9013908BF00380828
:10016800BE003708BD003608BC004708B600B70116
:10017800B801B9013908C5003808C4003708C300F8
:100188003608C2002F08B6003608A00033080A1245
:100198008A15F1240A128A11831203132108C70051
:1001A8002008C6004608B600B701B801B9013608EC
:1001B800BC07370803110318013E0319E428BD07DB
:1001C800380803110318013E0319EB28BE07390844
:1001D80003110318013E0319F228BF074708B600A8
:1001E800B701B801B9013608C20737080311031867
:1001F800013E03190029C307380803110318013EFB
:1002080003190729C407390803110318013E031904
:100218000E29C5073008B6003608A00032080A12B1
:100228008A15F1240A128A11831203132108C700C0
:100238002008C6004608B600B701B801B90136085B
:10024800BC07370803110318013E03192C29BD0701
:10025800380803110318013E03193329BE0739086A
:1002680003110318013E03193A29BF074708B600CE
:10027800B701B801B9013608C207370803110318D6
:10028800013E03194829C307380803110318013E22
:1002980003194F29C407390803110318013E03192C
:1002A8005629C5070830B6000310BC0DBD0DBE0D9C
:1002B800BF0DB60B58292F08B6003608A000320823
:1002C8000A128A15F1240A128A11831203132108CB
:1002D800C7002008C6004608B6004708B700B8019E
:1002E800B9013608BC07370803110318013E031982
:1002F8007E29BD07380803110318013E0319852913
:10030800BE07390803110318013E03198C29BF07DA
:100318002E08B6003608A00033080A128A15F12400
:100328000A128A11831203132108C7002008C60085
:100338004608B6004708B700B801B9013608BC0737
:10034800370803110318013E0319AB29BD07380804
:1003580003110318013E0319B229BE073908031116
:100368000318013E0319B929BF070830B600031066
:10037800BC0DBD0DBE0DBF0DB60BBB292E08B600BA
:100388003608A00032080A128A15F1240A128A11C6
:10039800831203132108C7002008C6004608B600C8
:1003A8004708B700B801B9013608BC073708031178
:1003B8000318013E0319E129BD0738080311031882
:1003C800013E0319E829BE07390803110318013E45
:1003D8000319EF29BF072F08B6003608A000340814
:1003E8000A128A15F1240A128A11831203132108AA
:1003F800C7002008C6004608B6004708B700B8017D
:10040800B9013608C207370803110318013E03195A
:100418000E2AC307380803110318013E0319152AC9
:10042800C407390803110318013E03191C2AC5071C
:100438003008B6003608A00033080A128A15F124DD
:100448000A128A11831203132108C7002008C60064
:100458004608B6004708B700B801B9013608C20710
:10046800370803110318013E03193B2AC30738084C
:1004780003110318013E0319422AC407390803115E
:100488000318013E0319492AC5073008B600360883
:10049800A00034080A128A15F1240A128A1183125C
:1004A80003132108C7002008C6004608B6004708FD
:1004B800B700B801B90108300310B60DB70DB80D73
:1004C800B90DFF3E031D602A3608C207370803111D
:1004D8000318013E0319712AC307380803110318CA
:1004E800013E0319782AC407390803110318013E8D
:1004F80003197F2AC5073C08B6003D08B7003E0827
:10050800B8003F08B90018300310B90CB80CB70C84
:10051800B60CFF3E031D882A3608C20737080311A8
:100528000318013E0319992AC30738080311031851
:10053800013E0319A02AC407390803110318013E14
:100548000319A72AC5070830B6000310BC0DBD0D56
:10055800BE0DBF0DB60BA92A41084007B600B7016A
:10056800B70D3608823EC60037080318013EFF3E25
:10057800C700DB2A0130B6000310C20DC30DC40D3D
:10058800C50DB60BC02ABF1FCA2ACB2ACC2A4214D3
:100598000130B6000310BC0DBD0DBE0DBF0DB60B6E
:1005A800CE2AFF30C6070318C70AFF30C707C41F83
:1005B800DE2ADF2ABE2AC001BF1FE32AE42A002B55
:1005C800FF303C05B600FF303D05B700FF303E0563
:1005D800B8007F303F05B9003908380437043604BD
:1005E8000319F72AF82AFB2AC001C00A002B421C6B
:1005F800FE2AFF2A002BF82A40080319042B052B92
:10060800362B0130C207003003180130C307003011
:1006180003180130C407003003180130C507451C12
:10062800162B172B362B4208B6004308B700440890
:10063800B8004508B9000130BA00390DB90CB80C3A
:10064800B70CB60CBA0B212B3908C5003808C40002
:100658003708C3003608C2000130C6070318C70AA6
:100668000030C7074708803AFF0080307F02031D2B
:100678003F2BFF304602031C422B432B4E2B7F306F
:1006880083120313C5008030C4000030C30000305B
:10069800C200832B831203134708803AFF0080307F
:1006A8007F02031D592B0130460203185C2B5D2B7A
:1006B800692B003083120313C5000030C4000030DA
:1006C800C3000030C200BB01832B8312031346080A
:1006D800B6003608C100FF30C205FF30C3057F30C1
:1006E800C4050030C505411C7A2B7B2B7C2BC41715
:1006F8004108B6000310360CB7003708C5003B08A0
:10070800B6003608C5044508B1004408B0004308DF
:10071800AF004208AE0008000A128A15A8260A127D
:100728008A110A128A159A250A128A110A128A153A
:100738000F240A128A1183120313A401A40A013098
:100748000A128A15E8250A128A1101300A128A1536
:10075800C8240A128A110A128A15E6230A128A1173
:10076800713083120313A0000030A1000A128A1509
:10077800F8230A128A11003083120313A000A10083
:100788000A128A11CD270A128A118312031321082B
:10079800D7002008D6000A128A15EF230A128A11F8
:1007A800043083120313D5002630D4002C30D30034
:1007B800D30BDC2BD40BDC2BD50BDC2B00000A1263
:1007C8008A15E6230A128A11813083120313A000C6
:1007D8000030A1000A128A15F8230A128A11003083
:1007E80083120313A000A1000A128A11CD270A124E
:1007F8008A1183120313210883160313A10083129D
:100808000313200883160313A0000A128A15EF2386
:100818000A128A11043083120313D5002630D4003B
:100828002C30D300D30B162CD40B162CD50B162C2E
:1008380000000A128A151C240A128A110A128A1543
:10084800E6230A128A11713083120313A0000030C4
:10085800A1000A128A15F8230A128A11003083129D
:100868000313A000A1000A128A11CD270A128A11C7
:10087800831203132008D3005308E3000A128A15D1
:10088800EF230A128A11043083120313D50026308D
:10089800D4002C30D300D30B4F2CD40B4F2CD50BBA
:1008A8004F2C000083120313630A031D5C2C5D2C7C
:1008B800672C0A128A1580240A128A1183120313DC
:1008C800DD01DD0A742CDD012D30D3005308E6006C
:1008D8002D30D3005308E5002D30D3005308E40031
:1008E8005608A0005708A100A201A30100300A126F
:1008F8008A1111270A128A11831203132308B500DB
:100908002208B4002108B3002008B2003F30B1002B
:10091800FB30B0000230AF000C30AE000A128A1172
:100928002F200A128A11831203133108CB003008D2
:10093800CA002F08C9002E08C8000A128A15842781
:100948000A128A11831203134908D7004808D600EF
:100958005708A9005608A8000A128A1510270A1273
:100968008A11831203136E08D3005308FD006D0823
:10097800D3005308EB006C08D3005308EA00610861
:10098800031DC72CC82CE92C0130570291300319DC
:100998005602031CD02CD12CD72CD80180309B00B8
:1009A8009D121D12022D0130570291300319560273
:1009B8000318DF2CE02C022DFF30D3005308D80099
:1009C800FF309B009D121D12022D6103031DED2CAB
:1009D800EE2CF42CD80180309B009D121D12022DA4
:1009E80002306106031DF92CFA2C022DFF30D300CA
:1009F8005308D800FF309B009D121D12A401A40AC1
:100A080002300A128A15E8250A128A117D080A128C
:100A18008A1560240A128A112E300A128A15602457
:100A28000A128A11831203136B080A128A156024AA
:100A38000A128A11831203136A080A128A1560249B
:100A48000A128A1117300A128A15C8240A128A1142
:100A580083160313210883120313A90083160313B3
:100A6800200883120313A8000A128A1510270A12F5
:100A78008A11831203136E08D3005308E9006D0826
:100A8800D3005308E8006C08D3005308E70069084E
:100A98000A128A1560240A128A118312031368083D
:100AA8000A128A1560240A128A118312031367082E
:100AB8000A128A1560240A128A1112300A128A153B
:100AC800C8240A128A11003083120313A800A9004F
:100AD8000A128A1510270A128A118312031366084C
:100AE8000A128A1560240A128A11831203136508F0
:100AF8000A128A1560240A128A11831203136408E1
:100B08000A128A1560240A128A1116300A128A15E6
:100B1800C8240A128A111030831203135E02031CC0
:100B2800962D972D9B2DDE01831603130C16831229
:100B3800861C9F2DA02DAF2BFB01E0018601EF0144
:100B4800EF0ADC01DB01AF2B0A128A110E280B1DFC
:100B5800AE2DAF2DB62D0130F400740883120313A7
:100B6800DE070B11831203138C1EBB2DBC2D7A2EAE
:100B78000D301A06031DC12DC22DC82D6008F400C2
:100B88007408E100023086000D301A060319CD2DD5
:100B9800CE2D7A2E1A08F4007408E200002EFB010C
:100BA800282EFB01FB0A282E0230F4007408FB00F3
:100BB800282E0330F4007408FB00282E0430F400BB
:100BC8007408FB00282E0530F4007408FB00282E5A
:100BD8000630F4007408FB00282E0730F40074086F
:100BE800FB00282E0830F4007408FB00282E09307A
:100BF800F4007408FB00282E6208F400F50175085B
:100C0800003A0319082E282E7408303A0319D32DF8
:100C1800013A0319D52D033A0319D82D013A0319BE
:100C2800DD2D073A0319E22D013A0319E72D033A9E
:100C38000319EC2D013A0319F12D0F3A0319F62D7A
:100C4800013A0319FB2D282E6F03031D2C2E2D2E80
:100C5800392E7B08F4007408E0007B08F40074085F
:100C6800DA00EF01DC01DC0A7A2E5C03031D3D2E5D
:100C78003E2E562E0A30F4007408F0005A080A1264
:100C88008A152F240A128A117B07F500750883122A
:100C98000313E0007B08F4007408D900DC01DB01D1
:100CA800DB0A7A2E5B03031D5A2E5B2E7A2E0A303E
:100CB800F4007408F00059080A128A152F240A1241
:100CC8008A11F5006430F6007608F00083120313E9
:100CD8005A080A128A152F240A128A1175077B07E7
:100CE800F700770883120313E000522E0C1E7D2EA6
:100CF8007E2E082F7C08031D822E832E882E7D08C9
:100D08009900FC01FC0A072F7C03031D8C2E8D2EF5
:100D1800942E2E3099000230F4007408FC00072F3E
:100D280002307C06031D992E9A2EA12E6B0899007D
:100D38000330F4007408FC00072F03307C06031D01
:100D4800A62EA72EAE2E6A0899000430F400740867
:100D5800FC00072F04307C06031DB32EB42EBB2ED7
:100D68002D3099000530F4007408FC00072F053079
:100D78007C06031DC02EC12EC82E690899000630B6
:100D8800F4007408FC00072F06307C06031DCD2EE6
:100D9800CE2ED52E680899000730F4007408FC00A0
:100DA800072F07307C06031DDA2EDB2EE22E67089C
:100DB80099000830F4007408FC00072F08307C06FE
:100DC800031DE72EE82EEF2E2D3099000930F40090
:100DD8007408FC00072F09307C06031DF42EF52E3D
:100DE800FD2E5D08303E99000A30F4007408FC00BE
:100DF800072F0A307C06031D022F032F072F0D3003
:100E08009900FC01072F0C127A088A0079088400DF
:100E1800780E8300FE0E7E0E090083120313A800CD
:100E280028080319182F192F2D2FA31F1C2F1D2F2A
:100E38002D2F2009AA002109AB002209AC002309A3
:100E4800AD00AA0A0319AB0A0319AC0A0319AD0AC3
:100E5800352F2308AD002208AC002108AB0020087C
:100E6800AA002308220421042004031D3C2F3D2F3F
:100E7800462F0030A3000030A2000030A10000304F
:100E8800A000CC2F9630A4002408A900582F0130C8
:100E9800A4002408A90701300310AD0CAC0CAB0C5E
:100EA800AA0CFF3E031D502FFE302D05031D5D2F9C
:100EB8005E2F4B2F7A2F0130A4002408A907013098
:100EC800AA07003003180130AB07003003180130BF
:100ED800AC07003003180130AD0701300310AD0C2A
:100EE800AC0CAB0CAA0CFF3E031D722FFF302D0576
:100EF800031D7F2F802F5F2F8C2F0130A902013017
:100F0800A4000310AA0DAB0DAC0DAD0DA40B852FDD
:100F1800AC1B8F2F902F962F023029020318952F84
:100F2800962F812F2918992F9A2FA22FFF30AA05C3
:100F3800FF30AB057F30AC05FF30AD050310A90CC1
:100F48002908A400A501A601A70118300310A40DC3
:100F5800A50DA60DA70DFF3E031DAA2F2408AA0460
:100F68002508AB042608AC042708AD042808031993
:100F7800BE2FBF2FC42FA31FC22FC32FC42FAD173F
:100F88002D08A3002C08A2002B08A1002A08A00005
:100F980008000A128A1502240A128A1183160313FA
:100FA80091150A128A1502240A128A118312031350
:100FB8001308A200A3012208A4002308A5000A120E
:100FC8008A1502240A128A118312031320032104AA
:100FD800031DEF2FF02FF42F831603139112F72F11
:100FE8008316031391161116831203132508A10003
:100FF8002408A0000800013408308A000408840A84
:10100800820700342034533431343A3420342034C5
:101018002034533432343A34203420342034533496
:1010280033343A340034DF34433420342034003449
:0610380076342034003480
:1017B00083120313A0002008880008006400800141
:1017C000840A0406031900340406DF2B0A128A1562
:1017D00002240A128A1583160313111408000A1230
:1017E0008A1502240A128A1583160313111508009C
:1017F0000A128A1502240A128A158312031320087A
:1018000093000800831603131419072C082C022CCC
:1018100011081F39031D0D2C0E2C022C080000305E
:101820000A128A1544240A128A1501300A128A15EE
:1018300044240A128A15080000308316031321027B
:101840001A3003192002031C262C272C2B2C831260
:10185000031305142E2C8312031305100800F30044
:10186000F201731C342C352C392C7008F1007108EE
:10187000F2070310F00D0310F30C7308031D412C45
:10188000422C312C7208080083120313A3000910A4
:1018900023080A128A15D8230A128A158312031301
:1018A0008914063083120313A2002F30A100A10B6C
:1018B000572CA20B572C5C2C8312031389100800A1
:1018C00083120313A2002208A1002108A300230809
:1018D000A1002108A400091424080A128A15D8239B
:1018E0000A128A158312031389140C30831203130E
:1018F000A100A10B792C00008312031389100800AA
:10190000831203138514063083120313A2001330CD
:10191000A100AD30A000A00B8B2CA10B8B2CA20B37
:101920008B2C8312031385105330A0002008E6008F
:101930004F30A0002008E5005330A0002008E4004C
:10194000080083120313A401A501201CA82CA92CB4
:10195000AF2C2208A4070318A50A2308A507013005
:101960000310A20DA30DFF3E031DB02C0130031088
:10197000A10CA00CFF3E031DB72C20082104031D61
:10198000C22CC32CA52C2508A1002408A000080007
:1019900083120313A700A501A601E32C250827073E
:1019A00084000A128A1500200A128A150A128A1562
:1019B00060240A128A15013083120313A507031845
:1019C000A60A0030A6072508270784000A128A15F0
:1019D00000200A128A15003A031DEF2CF02CCE2CA1
:1019E000080083120313A800A401A5012008A20087
:1019F000A3012208A6002308A700281C002D012D02
:101A0000072D2608A4070318A50A2708A5070130F3
:101A10000310A60DA70DFF3E031D082D0310A80CF3
:101A20002808031D142D152DFD2C2508A1002408C0
:101A3000A0000800283083120313940083160313B8
:101A40009101831203132E08B2002F08B30030084F
:101A5000B4003108B50002300310B20DB30DB40D5F
:101A6000B50DFF3E031D2C2D3508A3003408A20040
:101A70003308A1003208A0000030A7007A30A60089
:101A80001230A5000030A4000A128A1540260A125E
:101A90008A15831203132008FF3E83160313930055
:101AA000940187150716080083120313A501A601E8
:101AB0002008210403195D2D5E2D952DA701A70A8D
:101AC0006C2D01300310A00DA10DFF3E031D622DF2
:101AD0000130A4002408A707A11F6F2D702D612DD0
:101AE00001300310A50DA60DFF3E031D712D210829
:101AF0002302031D7D2D20082202031C802D812D31
:101B0000882D2008A2022108031CA303A302251488
:101B100001300310A10CA00CFF3E031D892D0130E4
:101B2000A702031D942D952D702D2608A1002508D0
:101B3000A000080000300A128A15D8230A128A155C
:101B40001A3083120313A500F730A400A40BA62DAE
:101B5000A50BA62DAB2D30300A128A1544240A128B
:101B60008A15073083120313A5007C30A400A40B50
:101B7000B72DA50BB72D000030300A128A1544246A
:101B80000A128A15413083120313A400A40BC62D38
:101B9000C92D30300A128A1544240A128A153C30A5
:101BA0000A128A1544240A128A1508300A128A1564
:101BB00044240A128A1501300A128A1544240A1292
:101BC0008A1506300A128A1544240A128A1508005A
:101BD00083120313A7002703031DEF2DF02D152EED
:101BE00024087F3EA5002508AA002A08A500043085
:101BF0000310A50CFF3E031DF82D2508A60026089E
:101C0000A8002A080F39A5002508A90028080A12EB
:101C10008A1544240A128A158312031329080A120A
:101C20008A1544240A128A153F2E02302706031D06
:101C30001A2E1B2E3F2E2408BF3EA5002508AA0001
:101C40002A08A50004300310A50CFF3E031D232E17
:101C50002508A6002608A8002A08F039A5002508AE
:101C6000A90028080A128A1544240A128A15831228
:101C7000031329080A128A1544240A128A15080037
:101C8000003083120313AC000030AB000030AA0018
:101C90000030A90023082204210420040319512E36
:101CA000522E9F2EAD01AD0A622E0130A800031006
:101CB000A00DA10DA20DA30DA80B572E0130A80059
:101CC0002808AD07A31F652E662E552E0130A800EB
:101CD0000310A90DAA0DAB0DAC0DA80B682E23089F
:101CE0002702031D7D2E22082602031D7D2E2108BA
:101CF0002502031D7D2E20082402031C802E812E28
:101D0000902E2008A4022108031C210FA5022208FE
:101D1000031C220FA6022308031C230FA702291469
:101D200001300310A30CA20CA10CA00CFF3E031D5C
:101D3000912E0130AD02031D9E2E9F2E662E2C0883
:101D4000A3002B08A2002A08A1002908A00008006F
:101D5000831603130F178F160F160F14831603170E
:101D60008801890183160313850188018901860191
:101D7000871083120313850186018801870188017A
:101D800089018B170B178B160B118316031318126F
:101D90001815831603178715CF3083160313990080
:101DA0009A01831203139817181318168316031336
:101DB000981681128111073081040A3083120313AF
:101DC0008100FA308316031392003F30831203130D
:101DD00097051708F0390C3897001D08F0390C38B2
:101DE0009D000F3095000F309B00CF3097059D125E
:101DF0001D128C109214121412158C1C002F012F1E
:101E0000FD2E8C100030B1000130B0008630AF00E4
:101E1000A030AE000A128A151A250A128A15080087
:101E2000831203132908AD002808AC006430A00019
:101E30000030A1002D08A3002C08A2000A128A1568
:101E400054250A128A15831203132008AA002A08AF
:101E5000EE006E08AA00AB012A08A0002B08A10022
:101E60009C30A200FF30A3000A128A15A1240A1296
:101E70008A15831203132C082007AC002D080318C1
:101E80002D0A2107AD000A30A0000030A1002D0866
:101E9000A3002C08A2000A128A1554250A128A15DA
:101EA000831203132008AA002A08ED006D08AA0077
:101EB000AB012A08A0002B08A100F630A200FF30D9
:101EC000A3000A128A15A1240A128A158312031389
:101ED0002C082007AC002D0803182D0A2107AD009F
:101EE0002C08AA002A08EC006E08303EAA002A0836
:101EF000EE006D08303EAA002A08ED006C08303E66
:101F0000AA002A08EC0008000310831203134A0DEC
:101F10004B0DCC004C08D2005208031D902F912F7E
:101F20009A2F0030CB000030CA000030C9000030CA
:101F3000C800FF2F4808CC004908CD004A08CE0051
:101F40004B08CF001F300310CF0CCE0CCD0CCC0CA7
:101F5000FF3E031DA32F4C08D0005008D100CA1724
:101F6000FF30C805FF30C905FF30CA050030CB057A
:101F70009630D202D21FBD2FBE2FD82F5208803AE2
:101F8000973E0318C42FC52FC62F912F0130031081
:101F9000CB0CCA0CC90CC80CFF3E031DC72F013067
:101FA000CC004C08D207031DD62FD72FC62FEF2FFA
:101FB00020305202031CDD2FDE2FEA2F912F01303B
:101FC000CC000310C80DC90DCA0DCB0DCC0BE12FF1
:101FD0000130D2025208031DEE2FEF2FDF2F5108E0
:101FE0000319F32FF42FFF2FC809C909CA09CB0918
:101FF000C80A0319C90A0319CA0A0319CB0A080037
:04400E00C420FF3F8C
:00000001FF
