:020000040000FA
:100000000A128A110E280134FE00030EF8000408BB
:10001000F9000A08FA000A128A118B2D0A128A11B5
:1000200011280A128A1103200A128A11EF0083167E
:100030000313A001A101A201A301A401831356305F
:1000400084006F300A128A1503240A128A11FB01F8
:10005000FC01FD0183010A128A118F2B8312031305
:1000600031088039B6003608BB003108B6003607C3
:10007000B7003708C100B01F3E283F284028411470
:1000800041080319442845285428410A031D4928DA
:100090004A2852280030B1000030B0000030AF00D4
:1000A0000030AE00B0175C280030B1000030B00066
:1000B0000030AF000030AE0035088039B600360899
:1000C000BB063508B6003607B7003708C000B41FB6
:1000D0006A286B286C28401440080319702871287E
:1000E0008028400A031D752876287E280030B50038
:1000F0000030B4000030B3000030B200B4178828DC
:100100000030B5000030B4000030B3000030B20061
:10011000400803198C288D2892284108031D912836
:1001200092289B280030B1000030B0000030AF00B2
:100130000030AE008E2B2E08B6003608A000340822
:100140000A128A150D250A128A1183120313210837
:10015000C7002008C6004608B600B701B801B901BB
:100160003908BF003808BE003708BD003608BC009B
:100170004708B600B701B801B9013908C500380809
:10018000C4003708C3003608C2002F08B60036087E
:10019000A00033080A128A150D250A128A1183124B
:1001A00003132108C7002008C6004608B600B7019F
:1001B000B801B9013608BC07370803110318013E1E
:1001C0000319E328BD07380803110318013E03197A
:1001D000EA28BE07390803110318013E0319F12864
:1001E000BF074708B600B701B801B9013608C20712
:1001F000370803110318013E0319FF28C307380805
:1002000003110318013E03190629C4073908031115
:100210000318013E03190D29C5073008B60036083A
:10022000A00032080A128A150D250A128A118312BB
:1002300003132108C7002008C6004608B600B7010E
:10024000B801B9013608BC07370803110318013E8D
:1002500003192B29BD07380803110318013E0319A0
:100260003229BE07390803110318013E0319392941
:10027000BF074708B600B701B801B9013608C20781
:10028000370803110318013E03194729C30738082B
:1002900003110318013E03194E29C407390803113D
:1002A0000318013E03195529C5070830B60003108D
:1002B000BC0DBD0DBE0DBF0DB60B57292F08B600E6
:1002C0003608A00032080A128A150D250A128A1172
:1002D000831203132108C7002008C6004608B60091
:1002E0004708B700B801B9013608BC073708031141
:1002F0000318013E03197D29BD07380803110318AF
:10030000013E03198429BE07390803110318013E71
:1003100003198B29BF072E08B6003608A000330842
:100320000A128A150D250A128A1183120313210855
:10033000C7002008C6004608B6004708B700B80145
:10034000B9013608BC07370803110318013E031929
:10035000AA29BD07380803110318013E0319B12962
:10036000BE07390803110318013E0319B829BF0756
:100370000830B6000310BC0DBD0DBE0DBF0DB60B91
:10038000BA292E08B6003608A00032080A128A15CB
:100390000D250A128A11831203132108C7002008B1
:1003A000C6004608B6004708B700B801B9013608CC
:1003B000BC07370803110318013E0319E029BD07E4
:1003C000380803110318013E0319E729BE0739084D
:1003D00003110318013E0319EE29BF072F08B600C9
:1003E0003608A00034080A128A150D250A128A114F
:1003F000831203132108C7002008C6004608B60070
:100400004708B700B801B9013608C2073708031119
:100410000318013E03190D2AC307380803110318F6
:10042000013E0319142AC407390803110318013EB9
:1004300003191B2AC5073008B6003608A000330888
:100440000A128A150D250A128A1183120313210834
:10045000C7002008C6004608B6004708B700B80124
:10046000B9013608C207370803110318013E031902
:100470003A2AC307380803110318013E0319412A19
:10048000C407390803110318013E0319482AC50798
:100490003008B6003608A00034080A128A150D2567
:1004A0000A128A11831203132108C7002008C6000C
:1004B0004608B6004708B700B801B9010830031074
:1004C000B60DB70DB80DB90DFF3E031D5F2A3608F6
:1004D000C207370803110318013E0319702AC30726
:1004E000380803110318013E0319772AC407390895
:1004F00003110318013E03197E2AC5073C08B60004
:100500003D08B7003E08B8003F08B9001830031096
:10051000B90CB80CB70CB60CFF3E031D872A360881
:10052000C207370803110318013E0319982AC307AD
:10053000380803110318013E03199F2AC40739081C
:1005400003110318013E0319A62AC5070830B60097
:100550000310BC0DBD0DBE0DBF0DB60BA82A410882
:100560004007B600B701B70D3608823EC60037080F
:100570000318013EFF3EC700DA2A0130B60003101F
:10058000C20DC30DC40DC50DB60BBF2ABF1FC92AAE
:10059000CA2ACB2A42140130B6000310BC0DBD0D8F
:1005A000BE0DBF0DB60BCD2AFF30C6070318C70A14
:1005B000FF30C707C41FDD2ADE2ABD2AC001BF1FC6
:1005C000E22AE32AFF2AFF303C05B600FF303D0552
:1005D000B700FF303E05B8007F303F05B90039084D
:1005E0003804370436040319F62AF72AFA2AC00118
:1005F000C00AFF2A421CFD2AFE2AFF2AF72A4008C9
:100600000319032B042B352B0130C20700300318CC
:100610000130C307003003180130C407003003184D
:100620000130C507451C152B162B352B4208B6008B
:100630004308B7004408B8004508B9000130BA00C3
:10064000390DB90CB80CB70CB60CBA0B202B390805
:10065000C5003808C4003708C3003608C20001309E
:10066000C6070318C70A0030C7074708803AFF00CB
:1006700080307F02031D3E2BFF304602031C412BBE
:10068000422B4D2B7F3083120313C5008030C400F2
:100690000030C3000030C200822B831203134708CE
:1006A000803AFF0080307F02031D582B0130460244
:1006B00003185B2B5C2B682B003083120313C500DF
:1006C0000030C4000030C3000030C200BB01822BE8
:1006D000831203134608B6003608C100FF30C20576
:1006E000FF30C3057F30C4050030C505411C792BA0
:1006F0007A2B7B2BC4174108B6000310360CB700C9
:100700003708C5003B08B6003608C5044508B100E7
:100710004408B0004308AF004208AE0008000A12C7
:100720008A15A8260A128A110A128A11A9270A1202
:100730008A110A128A152B240A128A1183120313B2
:10074000A401A40A01300A128A15E8250A128A11A6
:1007500001300A128A15E4240A128A110A128A1533
:100760000B240A128A11713083120313A000003087
:10077000A1000A128A1514240A128A110030831269
:100780000313A000A1000A128A1536250A128A1145
:10079000831203132108D7002008D6000A128A11F9
:1007A000F7270A128A11043083120313D50026306A
:1007B000D4002C30D300D30BDB2BD40BDB2BD50B8D
:1007C000DB2B00000A128A150B240A128A118130D1
:1007D00083120313A0000030A1000A128A1514240A
:1007E0000A128A11003083120313A000A1000A121A
:1007F0008A1536250A128A118312031321088316DB
:100800000313A10083120313200883160313A0000F
:100810000A128A11F7270A128A110430831203136D
:10082000D5002630D4002C30D300D30B152CD40B9C
:10083000152CD50B152C00000A128A1538240A1223
:100840008A110A128A150B240A128A117130831236
:100850000313A0000030A1000A128A1514240A1202
:100860008A11003083120313A000A1000A128A1516
:1008700036250A128A11831203132008D300530865
:10088000E3000A128A11F7270A128A110430831230
:100890000313D5002630D4002C30D300D30B4E2CBC
:1008A000D40B4E2CD50B4E2C000083120313630A7D
:1008B000031D5B2C5C2C662C0A128A159C240A12E0
:1008C0008A1183120313DD01DD0A732CDD012D3043
:1008D000D3005308E6002D30D3005308E5002D3037
:1008E000D3005308E4005608A0005708A100A20155
:1008F000A30100300A128A11ED260A128A1183120E
:1009000003132308B5002208B4002108B30020080F
:10091000B2003F30B100FB30B0000230AF000C300D
:10092000AE000A128A112E200A128A1183120313B2
:100930003108CB003008CA002F08C9002E08C800B3
:100940000A128A1584270A128A118312031349088E
:10095000D7004808D6005708A9005608A8000A1270
:100960008A1510270A128A11831203136E08D30006
:100970005308FD006D08D3005308EB006C08D3004A
:100980005308EA0001305702913003195602031C44
:10099000CA2CCB2CD12CD80180309B009D121D126B
:1009A000E22C013057029130031956020318D92C5A
:1009B000DA2CE22CFF30D3005308D800FF309B0024
:1009C0009D121D12A401A40A02300A128A15E825FC
:1009D0000A128A117D080A128A157C240A128A11C9
:1009E0002E300A128A157C240A128A1183120313EC
:1009F0006B080A128A157C240A128A1183120313C7
:100A00006A080A128A157C240A128A1117300A12FF
:100A10008A15E4240A128A1183160313210883120B
:100A20000313A90083160313200883120313A800DD
:100A30000A128A1510270A128A11831203136E08EC
:100A4000D3005308E9006D08D3005308E8006C0890
:100A5000D3005308E70069080A128A157C240A1299
:100A60008A118312031368080A128A157C240A1259
:100A70008A118312031367080A128A157C240A124A
:100A80008A1112300A128A15E4240A128A110030DF
:100A900083120313A800A9000A128A1510270A124C
:100AA0008A118312031366080A128A157C240A121B
:100AB0008A118312031365080A128A157C240A120C
:100AC0008A118312031364080A128A157C240A12FD
:100AD0008A1116300A128A15E4240A128A1110307B
:100AE000831203135E02031C762D772D7B2DDE010E
:100AF000831603130C168312861C7F2D802DAE2BBC
:100B0000FB01E1018601EF01EF0ADC01DB01AE2B05
:100B10000A128A110E280B1D8E2D8F2D962D013055
:100B2000F400740883120313DE070B1183120313FE
:100B30008C1E9B2D9C2D562E0D301A06031DA12DAB
:100B4000A22DA42D023086000D301A060319A92DFE
:100B5000AA2D562E1A08F4007408E200DC2DFB01C1
:100B6000042EFB01FB0A042E0230F4007408FB0083
:100B7000042E0330F4007408FB00042E0430F4004B
:100B80007408FB00042E0530F4007408FB00042EEA
:100B90000630F4007408FB00042E0730F4007408DB
:100BA000FB00042E0830F4007408FB00042E09300A
:100BB000F4007408FB00042E6208F400F5017508C7
:100BC000003A0319E42D042E7408303A0319AF2DAE
:100BD000013A0319B12D033A0319B42D013A03194F
:100BE000B92D073A0319BE2D013A0319C32D033A53
:100BF0000319C82D013A0319CD2D0F3A0319D22D2F
:100C0000013A0319D72D042E6F03031D082E092E58
:100C1000152E7B08F4007408E1007B08F4007408CA
:100C2000DA00EF01DC01DC0A562E5C03031D192EED
:100C30001A2E322E0A30F4007408F0005A080A12F4
:100C40008A154B240A128A117B07F5007508831256
:100C50000313E1007B08F4007408D900DC01DB0118
:100C6000DB0A562E5B03031D362E372E562E0A3016
:100C7000F4007408F00059080A128A154B240A126D
:100C80008A11F5006430F6007608F0008312031331
:100C90005A080A128A154B240A128A1175077B0713
:100CA000F700770883120313E1002E2E0C1E592E35
:100CB0005A2EE42E7C08031D5E2E5F2E642E7D08C6
:100CC0009900FC01FC0AE32E7C03031D682E692EAB
:100CD000702E2E3099000230F4007408FC00E32ED0
:100CE00002307C06031D752E762E7D2E6B08990032
:100CF0000330F4007408FC00E32E03307C06031D6F
:100D0000822E832E8A2E6A0899000430F40074081B
:100D1000FC00E32E04307C06031D8F2E902E972EB0
:100D20000D3099000530F4007408FC00E32E053006
:100D30007C06031D9C2E9D2EA42E6908990006306A
:100D4000F4007408FC00E32E06307C06031DA92E77
:100D5000AA2EB12E680899000730F4007408FC0030
:100D6000E32E07307C06031DB62EB72EBE2E670875
:100D700099000830F4007408FC00E32E08307C066B
:100D8000031DC32EC42ECB2E0D3099000930F40064
:100D90007408FC00E32E09307C06031DD02ED12EF2
:100DA000D92E5D08303E99000A30F4007408FC002A
:100DB000E32E0A307C06031DDE2EDF2EE32E0D30DF
:100DC0009900FC01E32E0C127A088A00790884004D
:100DD000780E8300FE0E7E0E090083120313A80016
:100DE00028080319F42EF52E092FA31FF82EF92E2B
:100DF000092F2009AA002109AB002209AC00230910
:100E0000AD00AA0A0319AB0A0319AC0A0319AD0A0B
:100E1000112F2308AD002208AC002108AB002008E8
:100E2000AA002308220421042004031D182F192FCF
:100E3000222F0030A3000030A2000030A1000030BB
:100E4000A000A82F9630A4002408A900342F013058
:100E5000A4002408A90701300310AD0CAC0CAB0CA6
:100E6000AA0CFF3E031D2C2FFE302D05031D392F2C
:100E70003A2F272F562F0130A4002408A90701304C
:100E8000AA07003003180130AB0700300318013007
:100E9000AC07003003180130AD0701300310AD0C72
:100EA000AC0CAB0CAA0CFF3E031D4E2FFF302D05E2
:100EB000031D5B2F5C2F3B2F682F0130A9020130EF
:100EC000A4000310AA0DAB0DAC0DAD0DA40B612F4A
:100ED000AC1B6B2F6C2F722F023029020318712F5D
:100EE000722F5D2F2918752F762F7E2FFF30AA05C0
:100EF000FF30AB057F30AC05FF30AD050310A90C0A
:100F00002908A400A501A601A70118300310A40D0B
:100F1000A50DA60DA70DFF3E031D862F2408AA04CC
:100F20002508AB042608AC042708AD0428080319DB
:100F30009A2F9B2FA02FA31F9E2F9F2FA02FAD175F
:100F40002D08A3002C08A2002B08A1002A08A0004D
:100F5000080000300A128A15FD230A128A111A307D
:100F600083120313A500F730A400A40BB52FA50B23
:100F7000B52FBA2F30300A128A1560240A128A114E
:100F8000073083120313A5007C30A400A40BC62FE6
:100F9000A50BC62F000030300A128A1560240A12F1
:100FA0008A11413083120313A400A40BD52FD82F2C
:100FB00030300A128A1560240A128A113C300A1253
:100FC0008A1560240A128A1108300A128A156024D0
:100FD0000A128A1101300A128A1560240A128A1133
:100FE00006300A128A1560240A128A1108000A12B1
:100FF0008A151E240A128A1183160313111508007C
:1010000008308A000408840A8207003420345334EC
:1010100031343A34203420342034533432343A34A6
:10102000203420342034533433343A340034DF3421
:0E10300043342034203400347634203400342D
:1017FA0083120313A00020088800080064008001F7
:10180A00840A0406031900340406042C0A128A15F1
:10181A001E240A128A1583160313111408000A12C9
:10182A008A151E240A128A158312031320089300AC
:10183A000800831603131419232C242C1E2C1108B8
:10184A001F39031D292C2A2C1E2C080000300A12CD
:10185A008A1560240A128A1501300A128A15602430
:10186A000A128A15080000308316031321021A305F
:10187A0003192002031C422C432C472C8312031306
:10188A0005144A2C8312031305100800F300F20111
:10189A00731C502C512C552C7008F1007108F2075A
:1018AA000310F00D0310F30C7308031D5D2C5E2C5E
:1018BA004D2C7208080083120313A3000910230891
:1018CA000A128A15FD230A128A1583120313891430
:1018DA00063083120313A2002F30A100A10B732C30
:1018EA00A20B732C782C831203138910080083121D
:1018FA000313A2002208A1002108A3002308A100C3
:10190A002108A400091424080A128A15FD230A12C0
:10191A008A158312031389140C3083120313A1004E
:10192A00A10B952C0000831203138910080083125F
:10193A0003138514063083120313A2001330A10087
:10194A00AD30A000A00BA72CA10BA72CA20BA72C93
:10195A008312031385105330A0002008E6004F308D
:10196A00A0002008E5005330A0002008E400080089
:10197A0083120313A401A501201CC42CC52CCB2C53
:10198A002208A4070318A50A2308A5070130031093
:10199A00A20DA30DFF3E031DCC2C01300310A10C98
:1019AA00A00CFF3E031DD32C20082104031DDE2CAE
:1019BA00DF2CC12C2508A1002408A00008008312EE
:1019CA000313A700A501A601FF2C250827078400F9
:1019DA000A128A1500200A128A150A128A157C240C
:1019EA000A128A15013083120313A5070318A60ADF
:1019FA000030A6072508270784000A128A15002046
:101A0A000A128A15003A031D0B2D0C2DEA2C080028
:101A1A0083120313A800A401A5012008A200A301B0
:101A2A002208A6002308A700281C1C2D1D2D232DE3
:101A3A002608A4070318A50A2708A50701300310DA
:101A4A00A60DA70DFF3E031D242D0310A80C280880
:101A5A00031D302D312D192D2508A1002408A000C1
:101A6A0008000A128A151E240A128A1583160313FD
:101A7A0091150A128A151E240A128A158312031353
:101A8A001308A200A3012208A4002308A5000A1231
:101A9A008A151E240A128A158312031320032104AD
:101AAA00031D582D592D5D2D831603139112602D98
:101ABA008316031391161116831203132508A10026
:101ACA002408A00008002830831203139400831608
:101ADA0003139101831203132E08B2002F08B300D7
:101AEA003008B4003108B50002300310B20DB30D4E
:101AFA00B40DB50DFF3E031D7A2D3508A300340839
:101B0A00A2003308A1003208A0000030A7007A30F2
:101B1A00A6001230A5000030A4000A128A15402639
:101B2A000A128A15831203132008FF3E8316031331
:101B3A009300940187150716080083120313A50161
:101B4A00A601200821040319AB2DAC2DE32DA70112
:101B5A00A70ABA2D01300310A00DA10DFF3E031DE7
:101B6A00B02D0130A4002408A707A11FBD2DBE2D4A
:101B7A00AF2D01300310A50DA60DFF3E031DBF2D8D
:101B8A0021082302031DCB2D20082202031CCE2D7F
:101B9A00CF2DD62D2008A2022108031CA303A302DD
:101BAA00251401300310A10CA00CFF3E031DD72DF4
:101BBA000130A702031DE22DE32DBE2D2608A10048
:101BCA002508A000080083120313A7002703031D9A
:101BDA00EF2DF02D152E24087F3EA5002508AA001A
:101BEA002A08A50004300310A50CFF3E031DF82D9A
:101BFA002508A6002608A8002A080F39A5002508E6
:101C0A00A90028080A128A1560240A128A15831262
:101C1A00031329080A128A1560240A128A153F2E0C
:101C2A0002302706031D1A2E1B2E3F2E2408BF3E04
:101C3A00A5002508AA002A08A50004300310A50C4F
:101C4A00FF3E031D232E2508A6002608A8002A0801
:101C5A00F039A5002508A90028080A128A15602467
:101C6A000A128A158312031329080A128A15602494
:101C7A000A128A150800003083120313AC000030E0
:101C8A00AB000030AA000030A90023082204210476
:101C9A0020040319512E522E9F2EAD01AD0A622E39
:101CAA000130A8000310A00DA10DA20DA30DA80BD1
:101CBA00572E0130A8002808AD07A31F652E662EEF
:101CCA00552E0130A8000310A90DAA0DAB0DAC0DBD
:101CDA00A80B682E23082702031D7D2E2208260240
:101CEA00031D7D2E21082502031D7D2E20082402B6
:101CFA00031C802E812E902E2008A4022108031C8A
:101D0A00210FA5022208031C220FA6022308031C86
:101D1A00230FA702291401300310A30CA20CA10C53
:101D2A00A00CFF3E031D912E0130AD02031D9E2E15
:101D3A009F2E662E2C08A3002B08A2002A08A100B9
:101D4A002908A0000800831603130F178F160F1611
:101D5A000F1483160317880189018316031385015B
:101D6A008801890186018710831203138501860180
:101D7A0088018701880189018B170B178B160B11B4
:101D8A008316031318121815831603178715CF30F5
:101D9A008316031399009A018312031398171813D1
:101DAA0018168316031398168112811107308104BD
:101DBA000A30831203138100FA3083160313920048
:101DCA003F308312031397051708F0390C38970030
:101DDA001D08F0390C389D000F3095000F309B001C
:101DEA00CF3097059D121D128C10921412141215E1
:101DFA008C1C002F012FFD2E8C100030B1000130F9
:101E0A00B0008630AF00A030AE000A128A156825ED
:101E1A000A128A150800831203132908AD0028083C
:101E2A00AC006430A0000030A1002D08A3002C08EB
:101E3A00A2000A128A15A2250A128A15831203130E
:101E4A002008AA002A08EE006E08AA00AB012A0898
:101E5A00A0002B08A1009C30A200FF30A3000A12A8
:101E6A008A15BD240A128A15831203132C08200727
:101E7A00AC002D0803182D0A2107AD000A30A00076
:101E8A000030A1002D08A3002C08A2000A128A150E
:101E9A00A2250A128A15831203132008AA002A0807
:101EAA00ED006D08AA00AB012A08A0002B08A100CA
:101EBA00F630A200FF30A3000A128A15BD240A12C6
:101ECA008A15831203132C082007AC002D08031867
:101EDA002D0A2107AD002C08AA002A08EC006E087A
:101EEA00303EAA002A08EE006D08303EAA002A08F1
:101EFA00ED006C08303EAA002A08EC000800031026
:101F0A00831203134A0D4B0DCC004C08D200520821
:101F1A00031D902F912F9A2F0030CB000030CA005A
:101F2A000030C9000030C800FF2F4808CC0049081B
:101F3A00CD004A08CE004B08CF001F300310CF0C4B
:101F4A00CE0CCD0CCC0CFF3E031DA32F4C08D000A9
:101F5A005008D100CA17FF30C805FF30C905FF3045
:101F6A00CA050030CB059630D202D21FBD2FBE2F34
:101F7A00D82F5208803A973E0318C42FC52FC62F70
:101F8A00912F01300310CB0CCA0CC90CC80CFF3EB0
:101F9A00031DC72F0130CC004C08D207031DD62FD2
:101FAA00D72FC62FEF2F20305202031CDD2FDE2F32
:101FBA00EA2F912F0130CC000310C80DC90DCA0DAC
:101FCA00CB0DCC0BE12F0130D2025208031DEE2FAC
:101FDA00EF2FDF2F51080319F32FF42FFF2FC80912
:101FEA00C909CA09CB09C80A0319C90A0319CA0ABD
:061FFA000319CB0A0800E8
:04400E00C420FF3F8C
:00000001FF
