:020000040000FA
:060000000A128A110C280F
:10000800FE00030EF0000A08F1000A128A15762E87
:100018000A128A110F2883120313CE01CF01D001CF
:10002800D101D201D301D401D501D601D701830171
:100038000A128A11802B8312031329088039AE0013
:100048002E08B3002908AE002E07AF002F08B9000C
:10005800A81F2F28302831283914390803193528C2
:1000680036284528390A031D3A283B2843280030FA
:10007800A9000030A8000030A7000030A600A8178B
:100088004D280030A9000030A8000030A70000303B
:10009800A6002D088039AE002E08B3062D08AE0044
:1000A8002E07AF002F08B800AC1F5B285C285D281E
:1000B800381438080319612862287128380A031D82
:1000C800662867286F280030AD000030AC0000308B
:1000D800AB000030AA00AC1779280030AD00003022
:1000E800AC000030AB000030AA00380803197D28A6
:1000F8007E2883283908031D822883288C2800300D
:10010800A9000030A8000030A7000030A6007F2B0F
:100118002608AE002E08F2002C080A128A154A2773
:100128000A128A11730883120313BF007208BE00F3
:100138003E08AE00AF01B001B1013108B700300888
:10014800B6002F08B5002E08B4003F08AE00AF0176
:10015800B001B1013108BD003008BC002F08BB0058
:100168002E08BA002708AE002E08F2002B080A1243
:100178008A154A270A128A11730883120313BF00CB
:100188007208BE003E08AE00AF01B001B1012E08F2
:10019800B4072F0803110318013E0319D428B50723
:1001A800300803110318013E0319DB28B60731088C
:1001B80003110318013E0319E228B7073F08AE00F0
:1001C800AF01B001B1012E08BA072F0803110318B7
:1001D800013E0319F028BB07300803110318013E3C
:1001E8000319F728BC07310803110318013E031946
:1001F800FE28BD072808AE002E08F2002A080A12B9
:100208008A154A270A128A11730883120313BF003A
:100218007208BE003E08AE00AF01B001B1012E0861
:10022800B4072F0803110318013E03191C29B50749
:10023800300803110318013E03192329B6073108B2
:1002480003110318013E03192A29B7073F08AE0016
:10025800AF01B001B1012E08BA072F080311031826
:10026800013E03193829BB07300803110318013E62
:1002780003193F29BC07310803110318013E03196C
:100288004629BD070830AE000310B40DB50DB60DF4
:10029800B70DAE0B48292708AE002E08F2002A0831
:1002A8000A128A154A270A128A117308831203133D
:1002B800BF007208BE003E08AE003F08AF00B001A4
:1002C800B1012E08B4072F0803110318013E0319C2
:1002D8006E29B507300803110318013E0319752963
:1002E800B607310803110318013E03197C29B70723
:1002F8002608AE002E08F2002B080A128A154A2793
:100308000A128A11730883120313BF007208BE0011
:100318003E08AE003F08AF00B001B1012E08B40797
:100328002F0803110318013E03199B29B50730084C
:1003380003110318013E0319A229B6073108031156
:100348000318013E0319A929B7070830AE000310A6
:10035800B40DB50DB60DB70DAE0BAB292608AE0022
:100368002E08F2002A080A128A154A270A128A1148
:10037800730883120313BF007208BE003E08AE0064
:100388003F08AF00B001B1012E08B4072F080311D0
:100398000318013E0319D129B507300803110318C2
:1003A800013E0319D829B607310803110318013E85
:1003B8000319DF29B7072708AE002E08F2002C081A
:1003C8000A128A154A270A128A117308831203131C
:1003D800BF007208BE003E08AE003F08AF00B00183
:1003E800B1012E08BA072F0803110318013E03199B
:1003F800FE29BB07300803110318013E0319052A1B
:10040800BC07310803110318013E03190C2ABD0764
:100418002808AE002E08F2002B080A128A154A276F
:100428000A128A11730883120313BF007208BE00F0
:100438003E08AE003F08AF00B001B1012E08BA0770
:100448002F0803110318013E03192B2ABB07300894
:1004580003110318013E0319322ABC07310803119E
:100468000318013E0319392ABD072808AE002E08D3
:10047800F2002C080A128A154A270A128A117308F0
:1004880083120313BF007208BE003E08AE003F0887
:10049800AF00B001B10108300310AE0DAF0DB00DC3
:1004A800B10DFF3E031D502A2E08BA072F0803116D
:1004B8000318013E0319612ABB073008031103180A
:1004C800013E0319682ABC07310803110318013ECD
:1004D80003196F2ABD073408AE003508AF00360887
:1004E800B0003708B10018300310B10CB00CAF0CD5
:1004F800AE0CFF3E031D782A2E08BA072F080311F9
:100508000318013E0319892ABB0730080311031891
:10051800013E0319902ABC07310803110318013E54
:100528000319972ABD070830AE000310B40DB50DA6
:10053800B60DB70DAE0B992A39083807AE00AF01D2
:10054800AF0D2E08823EBE002F080318013EFF3E65
:10055800BF00CB2A0130AE000310BA0DBB0DBC0D95
:10056800BD0DAE0BB02AB71FBA2ABB2ABC2A3A1453
:100578000130AE000310B40DB50DB60DB70DAE0BBE
:10058800BE2AFF30BE070318BF0AFF30BF07BC1FD3
:10059800CE2ACF2AAE2AB801B71FD32AD42AF02AE6
:1005A800FF303405AE00FF303505AF00FF303605AB
:1005B800B0007F303705B100310830042F042E0415
:1005C8000319E72AE82AEB2AB801B80AF02A3A1CE4
:1005D800EE2AEF2AF02AE82A38080319F42AF52A1D
:1005E800262B0130BA07003003180130BB07003052
:1005F80003180130BC07003003180130BD073D1C4B
:10060800062B072B262B3A08AE003B08AF003C0808
:10061800B0003D08B1000130B200310DB10CB00C92
:10062800AF0CAE0CB20B112B3108BD003008BC006A
:100638002F08BB002E08BA000130BE070318BF0AF6
:100648000030BF073F08803AFF0080307F02031D5B
:100658002F2BFF303E02031C322B332B3E2B7F30D7
:1006680083120313BD008030BC000030BB00003093
:10067800BA00732B831203133F08803AFF008030BF
:100688007F02031D492B01303E0203184C2B4D2BD2
:10069800592B003083120313BD000030BC0000301A
:1006A800BB000030BA00B301732B831203133E085A
:1006B800AE002E08B900FF30BA05FF30BB057F3009
:1006C800BC050030BD05391C6A2B6B2B6C2BBC1785
:1006D8003908AE0003102E0CAF002F08BD003308F8
:1006E800AE002E08BD043D08A9003C08A8003B0840
:1006F800A7003A08A60008000A128A1571270A12EC
:100708008A110A128A1164270A128A110A128A1592
:10071800A8260A128A11F601F60A01300A128A116D
:100728000C270A128A1101300A128A1500270A12A8
:100738008A110A128A157F260A128A117130F2006C
:100748000030F3000A128A1591260A128A11003025
:10075800F200F3000A128A159A270A128A117308FE
:1007680083120313D3007208D2000A128A1588264E
:100778000A128A11033083120313CD000830CC000B
:100788007630CB00CB0BC62BCC0BC62BCD0BC62B98
:1007980000000A128A157F260A128A118130F20097
:1007A8000030F3000A128A1591260A128A110030C5
:1007B800F200F3000A128A159A270A128A1173089E
:1007C80083120313CF007208CE000A128A158826F6
:1007D8000A128A11043083120313CD000C30CC00A6
:1007E8003330CB00CB0BF62BCC0BF62BCD0BF62BEB
:1007F8000A128A11EF270A128A110A128A157F260D
:100808000A128A117130F2000030F3000A128A15B8
:1008180091260A128A110030F200F3000A128A1592
:100828009A270A128A11720883120313CB004B0805
:10083800D4000A128A1588260A128A1104308312F3
:100848000313CD000C30CC003330CB00CB0B2A2C5B
:10085800CC0B2A2CCD0B2A2C83120313540A031D0C
:10086800362C372C3C2C0A128A15B5260A128A1106
:10087800831203135208F2005308F300F401F50140
:1008880000300A128A11F8240A128A117508831294
:100898000313AD007408AC007308AB007208AA001B
:1008A8003F30A900FB30A8000230A7000C30A6009A
:1008B8000A128A111F200A128A11831203132908A7
:1008C800C3002808C2002708C1002608C0000A1271
:1008D8008A11B4250A128A11831203134108D3001E
:1008E8004008D2005308FB005208FA000A128A1185
:1008F80030260A128A11F601F60A02300A128A1103
:100908000C270A128A118312031357080A128A1530
:10091800E3260A128A112E300A128A15E3260A12D1
:100928008A118312031356080A128A15E3260A123B
:100938008A118312031355080A128A15E3260A122C
:100948008A1117300A128A1500270A128A1183128F
:1009580003134F08FB004E08FA000A128A113026CA
:100968000A128A118312031357080A128A15E326FA
:100978000A128A118312031356080A128A15E326EB
:100988000A128A118312031355080A128A15E326DC
:100998000A128A1112300A128A1500270A128A11BD
:1009A8000030FA00FB000A128A1130260A128A1156
:1009B80053300A128A15E3260A128A114F300A1296
:1009C8008A15E3260A128A1153300A128A15E32679
:1009D8000A128A1116300A128A1500270A128A1179
:1009E8009D2B0A128A110C2883120313A0002008D9
:1009F8000319FF2C002D142DF51F032D042D142D84
:100A08007209A2007309A3007409A4007509A5005E
:100A1800A20A0319A30A0319A40A0319A50A1C2D7B
:100A28007508A5007408A4007308A3007208A20042
:100A38007508740473047204031D232D242D2D2DB1
:100A48000030F5000030F4000030F3000030F20010
:100A5800B32D9630F6007608A1003F2D0130F60040
:100A68007608A10701300310A50CA40CA30CA20C56
:100A7800FF3E031D372DFE302505031D442D452D52
:100A8800322D612D0130F6007608A1070130A2074A
:100A9800003003180130A307003003180130A40701
:100AA800003003180130A50701300310A50CA40C71
:100AB800A30CA20CFF3E031D592DFF302505031D75
:100AC800662D672D462D732D0130A1020130F600E9
:100AD8000310A20DA30DA40DA50DF60B6C2DA41BE0
:100AE800762D772D7D2D0230210203187C2D7D2D4A
:100AF800682D2118802D812D892DFF30A205FF300A
:100B0800A3057F30A405FF30A5050310A10C21081B
:100B1800F600F701F801F90118300310F60DF70D8A
:100B2800F80DF90DFF3E031D912D7608A2047708F4
:100B3800A3047808A4047908A50420080319A52D9E
:100B4800A62DAB2DF51FA92DAA2DAB2DA517250870
:100B5800F5002408F4002308F3002208F200080036
:100B6800031083120313420D430DC4004408CA0046
:100B78004A08031DC02DC12DCA2D0030C300003006
:100B8800C2000030C1000030C0002F2E4008C40051
:100B98004108C5004208C6004308C7001F300310BB
:100BA800C70CC60CC50CC40CFF3E031DD32D44084E
:100BB800C8004808C900C217FF30C005FF30C1058A
:100BC800FF30C2050030C3059630CA02CA1FED2D9A
:100BD800EE2D082E4A08803A973E0318F42DF52D7D
:100BE800F62DC12D01300310C30CC20CC10CC00C72
:100BF800FF3E031DF72D0130C4004408CA07031D3A
:100C0800062E072EF62D1F2E20304A02031C0D2E0D
:100C18000E2E1A2EC12D0130C4000310C00DC10DB7
:100C2800C20DC30DC40B112E0130CA024A08031DA0
:100C38001E2E1F2E0F2E49080319232E242E2F2E69
:100C4800C009C109C209C309C00A0319C10A0319A5
:100C5800C20A0319C30A08007B0883120313A300FE
:100C68007A08A2006430F2000030F3002308F5008F
:100C78002208F4000A128A11AB270A128A11720894
:100C880083120313A0002008D7005708A000A10171
:100C98002008F2002108F3009C30F400FF30F50032
:100CA8000A128A1525270A128A11831203132208A9
:100CB8007207A20023080318230A7307A3000A3047
:100CC800F2000030F3002308F5002208F4000A12AD
:100CD8008A11AB270A128A11720883120313A00023
:100CE8002008D6005608A000A1012008F20021081B
:100CF800F300F630F400FF30F5000A128A152527B4
:100D08000A128A118312031322087207A200230809
:100D18000318230A7307A3002208A0002008D5009F
:100D28005708303EA0002008D7005608303EA000E3
:100D38002008D6005508303EA0002008D50008003D
:100D4800003083120313A3000030A2000030A1007A
:100D58000030A00075087404730472040319B52EDA
:100D6800B62E032FA401A40AC62E0130FA000310E0
:100D7800F20DF30DF40DF50DFA0BBB2E0130FA0050
:100D88007A08A407F51FC92ECA2EB92E0130FA0019
:100D98000310A00DA10DA20DA30DFA0BCC2E750802
:100DA8007902031DE12E74087802031DE12E7308F1
:100DB8007702031DE12E72087602031CE42EE52E4D
:100DC800F42E7208F6027308031C730FF7027408F6
:100DD800031C740FF8027508031C750FF902201420
:100DE80001300310F50CF40CF30CF20CFF3E031D5C
:100DF800F52E0130A402031D022F032FCA2E23084B
:100E0800F5002208F4002108F3002008F200080089
:100E180083120313A0002003031D132F142F392F4F
:100E280076087F3EF7007708A3002308F700043010
:100E38000310F70CFF3E031D1C2F7708F8007808F5
:100E4800A10023080F39F7007708A20021080A1229
:100E58008A15C9260A128A118312031322080A1254
:100E68008A15C9260A128A11632F02302006031D2B
:100E78003E2F3F2F632F7608BF3EF7007708A30069
:100E88002308F70004300310F70CFF3E031D472F1B
:100E98007708F8007808A1002308F039F7007708E8
:100EA800A20021080A128A15C9260A128A11831279
:100EB800031322080A128A15C9260A128A11080081
:100EC80000300A128A1570260A128A111A30F700A1
:100ED800F830F600F60B6E2FF70B6E2F000030304F
:100EE8000A128A15C9260A128A110730F7007D30BE
:100EF800F600F60B7D2FF70B7D2F30300A128A157E
:100F0800C9260A128A114230F600F60B892F000012
:100F180030300A128A15C9260A128A113C300A1280
:100F28008A15C9260A128A1108300A128A15C92692
:100F38000A128A1101300A128A15C9260A128A1160
:100F480006300A128A15C9260A128A110800F70102
:100F5800F801720873040319B22FB32FEA2FF901AD
:100F6800F90AC12F01300310F20DF30DFF3E031DE6
:100F7800B72F0130F6007608F907F31FC42FC52FE5
:100F8800B62F01300310F70DF80DFF3E031DC62FD5
:100F980073087502031DD22F72087402031CD52F23
:100FA800D62FDD2F7208F4027308031CF503F5022F
:100FB800771401300310F30CF20CFF3E031DDE2FF3
:100FC8000130F902031DE92FEA2FC52F7808F30035
:100FD8007708F20008000030831203134F021A301A
:100FE80003194E02031CF92FFA2FFC2F0514FD2FAD
:040FF80005100800D8
:1010000008308A000408840A8207003420345334EC
:1010100031343A34203420342034533432343A34A6
:10102000203420342034533433343A340034DF3421
:0E10300043342034203400347634203400342D
:101CE000F200720883120313880008008B138B170D
:101CF00071088A00700E8300FE0E7E0E09000A1223
:101D00008A159B260A128A158316031311140800DC
:101D10000A128A159B260A128A15831603131115B7
:101D200008000A128A159B260A128A157208831265
:101D3000031393000800831603131419A02EA12E79
:101D40009B2E11081F39031DA62EA72E9B2E0800BF
:101D500000300A128A15C9260A128A1501300A12A1
:101D60008A15C9260A128A150800831203138514DE
:101D70000630F4001330F300AD30F200F20BBE2E4B
:101D8000F30BBE2EF40BBE2EC52E8312031385104B
:101D90000800F50083120313091075080A128A154A
:101DA00070260A128A158312031389140630F40070
:101DB0003030F300F30BDA2EF40BDA2E000083122E
:101DC000031389100800F4007408F3007308F50089
:101DD0007508F3007308F6008312031309147608DC
:101DE0000A128A1570260A128A158312031389149F
:101DF0000D30F300F30BFA2E831203138910080041
:101E0000F900F701F801172F7708790784000A1203
:101E10008A1500200A128A150A128A15E3260A1268
:101E20008A150130F7070318F80A0030F807770819
:101E3000790784000A128A1500200A128A15003ACE
:101E4000031D232F242F042F0800F601F701721C15
:101E50002A2F2B2F312F7408F6070318F70A75085D
:101E6000F70701300310F40DF50DFF3E031D322F6F
:101E700001300310F30CF20CFF3E031D392F7208E2
:101E80007304031D442F452F272F7708F30076088E
:101E9000F2000800FA00F601F7017208F400F501FB
:101EA0007408F8007508F9007A1C572F582F5E2F18
:101EB0007808F6070318F70A7908F70701300310C6
:101EC000F80DF90DFF3E031D5F2F0310FA0C7A0881
:101ED000031D6B2F6C2F542F7708F3007608F20048
:101EE00008008316031788018901831603138501EF
:101EF0008801890186018312031385018601870108
:101F000088018901831603130F178F160F160F14FC
:101F10008B130B13003083120313A8000130A700AA
:101F20008630A600A030A5000A128A15C8270A121A
:101F30008A1508000A128A159B260A128A1583162A
:101F4000031391150A128A159B260A128A15831209
:101F500003131308F400F5017408F6007508F70080
:101F60000A128A159B260A128A1572037304031D2E
:101F7000BA2FBB2FBF2F831603139112C22F8316C4
:101F80000313911611167708F3007608F200080083
:101F900028308312031394008316031391018312D4
:101FA00003132508A9002608AA002708AB00280863
:101FB000AC0002300310A90DAA0DAB0DAC0DFF3E15
:101FC000031DDA2F2C08F5002B08F4002A08F30073
:101FD0002908F2000030F9007A30F8001230F700DA
:101FE0000030F6000A128A11A4260A128A15720815
:101FF000FF3E83160313930094018715071608000C
:04400E00C420FF3F8C
:00000001FF
