:020000040000FA
:060000000A128A110E280D
:10000800FE00030EF8000408F9000A08FA000A12B4
:100018008A11402D0A128A1111280A128A11FF2703
:100028000A128A11EF008313563084006F300A12C7
:100038008A1595240A128A11FB01FC01FD0183012E
:100048000A128A11882B8312031331088039B600EB
:100058003608BB003108B6003607B7003708C100BC
:10006800B01F3728382839284114410803193D287A
:100078003E284D28410A031D422843284B280030BA
:10008800B1000030B0000030AF000030AE00B01753
:1000980055280030B1000030B0000030AF0000300B
:1000A800AE0035088039B6003608BB063508B600FC
:1000B8003607B7003708C000B41F632864286528CE
:1000C80040144008031969286A287928400A031D42
:1000D8006E286F2877280030B5000030B400003053
:1000E800B3000030B200B41781280030B5000030EA
:1000F800B4000030B3000030B2004008031985286E
:1001080086288B284108031D8A288B2894280030CC
:10011800B1000030B0000030AF000030AE00872BD7
:100128002E08B6003608A00034080A128A15982549
:100138000A128A11831203132108C7002008C60077
:100148004608B600B701B801B9013908BF00380838
:10015800BE003708BD003608BC004708B600B70126
:10016800B801B9013908C5003808C4003708C30008
:100178003608C2002F08B6003608A00033080A1255
:100188008A1598250A128A11831203132108C700B9
:100198002008C6004608B600B701B801B9013608FC
:1001A800BC07370803110318013E0319DC28BD07F3
:1001B800380803110318013E0319E328BE0739085C
:1001C80003110318013E0319EA28BF074708B600C0
:1001D800B701B801B9013608C20737080311031877
:1001E800013E0319F828C307380803110318013E14
:1001F8000319FF28C407390803110318013E03191E
:100208000629C5073008B6003608A00032080A12C9
:100218008A1598250A128A11831203132108C70028
:100228002008C6004608B600B701B801B90136086B
:10023800BC07370803110318013E03192429BD0719
:10024800380803110318013E03192B29BE07390882
:1002580003110318013E03193229BF074708B600E6
:10026800B701B801B9013608C207370803110318E6
:10027800013E03194029C307380803110318013E3A
:1002880003194729C407390803110318013E031944
:100298004E29C5070830B6000310BC0DBD0DBE0DB4
:1002A800BF0DB60B50292F08B6003608A00032083B
:1002B8000A128A1598250A128A1183120313210833
:1002C800C7002008C6004608B6004708B700B801AE
:1002D800B9013608BC07370803110318013E031992
:1002E8007629BD07380803110318013E03197D2933
:1002F800BE07390803110318013E03198429BF07F3
:100308002E08B6003608A00033080A128A15982568
:100318000A128A11831203132108C7002008C60095
:100328004608B6004708B700B801B9013608BC0747
:10033800370803110318013E0319A329BD0738081C
:1003480003110318013E0319AA29BE07390803112E
:100358000318013E0319B129BF070830B60003107E
:10036800BC0DBD0DBE0DBF0DB60BB3292E08B600D2
:100378003608A00032080A128A1598250A128A112E
:10038800831203132108C7002008C6004608B600D8
:100398004708B700B801B9013608BC073708031188
:1003A8000318013E0319D929BD073808031103189A
:1003B800013E0319E029BE07390803110318013E5D
:1003C8000319E729BF072F08B6003608A00034082C
:1003D8000A128A1598250A128A1183120313210812
:1003E800C7002008C6004608B6004708B700B8018D
:1003F800B9013608C207370803110318013E03196B
:10040800062AC307380803110318013E03190D2AE9
:10041800C407390803110318013E0319142AC50734
:100428003008B6003608A00033080A128A15982545
:100438000A128A11831203132108C7002008C60074
:100448004608B6004708B700B801B9013608C20720
:10045800370803110318013E0319332AC307380864
:1004680003110318013E03193A2AC4073908031176
:100478000318013E0319412AC5073008B60036089B
:10048800A00034080A128A1598250A128A118312C4
:1004980003132108C7002008C6004608B60047080D
:1004A800B700B801B90108300310B60DB70DB80D83
:1004B800B90DFF3E031D582A3608C2073708031135
:1004C8000318013E0319692AC307380803110318E2
:1004D800013E0319702AC407390803110318013EA5
:1004E8000319772AC5073C08B6003D08B7003E083F
:1004F800B8003F08B90018300310B90CB80CB70C95
:10050800B60CFF3E031D802A3608C20737080311C0
:100518000318013E0319912AC30738080311031869
:10052800013E0319982AC407390803110318013E2C
:1005380003199F2AC5070830B6000310BC0DBD0D6E
:10054800BE0DBF0DB60BA12A41084007B600B70182
:10055800B70D3608823EC60037080318013EFF3E35
:10056800C700D32A0130B6000310C20DC30DC40D55
:10057800C50DB60BB82ABF1FC22AC32AC42A421403
:100588000130B6000310BC0DBD0DBE0DBF0DB60B7E
:10059800C62AFF30C6070318C70AFF30C707C41F9B
:1005A800D62AD72AB62AC001BF1FDB2ADC2AF82A96
:1005B800FF303C05B600FF303D05B700FF303E0573
:1005C800B8007F303F05B9003908380437043604CD
:1005D8000319EF2AF02AF32AC001C00AF82A421C9C
:1005E800F62AF72AF82AF02A40080319FC2AFD2AD5
:1005F8002E2B0130C207003003180130C30700302A
:1006080003180130C407003003180130C507451C22
:100618000E2B0F2B2E2B4208B6004308B7004408B8
:10062800B8004508B9000130BA00390DB90CB80C4A
:10063800B70CB60CBA0B192B3908C5003808C4001A
:100648003708C3003608C2000130C6070318C70AB6
:100658000030C7074708803AFF0080307F02031D3B
:10066800372BFF304602031C3A2B3B2B462B7F309F
:1006780083120313C5008030C4000030C30000306B
:10068800C2007B2B831203134708803AFF00803097
:100698007F02031D512B013046020318542B552BA2
:1006A800612B003083120313C5000030C4000030F2
:1006B800C3000030C200BB017B2B83120313460822
:1006C800B6003608C100FF30C205FF30C3057F30D1
:1006D800C4050030C505411C722B732B742BC4173D
:1006E8004108B6000310360CB7003708C5003B08B0
:1006F800B6003608C5044508B1004408B0004308F0
:10070800AF004208AE0008000A128A15F3250A1243
:100718008A110A128A157E260A128A110A128A1565
:10072800C6240A128A1183120313A401A40A0130F1
:100738000A128A15CC260A128A1101300A128A1561
:100748006F250A128A110A128A159D240A128A1123
:10075800713083120313A0000030A1000A128A1519
:10076800AF240A128A11003083120313A000A100DB
:100778000A128A15C1250A128A1183120313210845
:10078800DB002008DA000A128A15A6240A128A1148
:10079800033083120313D5000830D4007630D30019
:1007A800D30BD42BD40BD42BD50BD42B00000A128B
:1007B8008A159D240A128A11813083120313A0001E
:1007C8000030A1000A128A15AF240A128A110030DB
:1007D80083120313A000A1000A128A15C1250A1268
:1007E8008A11831203132108D7002008D6000A12A1
:1007F8008A15A6240A128A11043083120313D5001D
:100808000C30D4003330D300D30B082CD40B082C75
:10081800D50B082C0A128A15D3240A128A110A1237
:100828008A159D240A128A11713083120313A000BD
:100838000030A1000A128A15AF240A128A1100306A
:1008480083120313A000A1000A128A15C1250A12F7
:100858008A11831203132008D3005308E6000A12F2
:100868008A15A6240A128A11043083120313D500AC
:100878000C30D4003330D300D30B402CD40B402C95
:10088800D50B402C83120313660A031D4C2C4D2CE8
:10089800522C0A128A15F7240A128A11831203139A
:1008A8005A08A0005B08A100A201A30100300A12A7
:1008B8008A1187260A128A11831203132308B500A6
:1008C8002208B4002108B3002008B2003F30B1006C
:1008D800FB30B0000230AF000C30AE000A128A11B3
:1008E80027200A128A11831203133108CB0030081B
:1008F800CA002F08C9002E08C8000A128A11432707
:100908000A128A11831203134908DB004808DA0027
:100918005B08A9005A08A8000A128A158C270A122F
:100928008A11831203136E08D3005308FD006D0863
:10093800D3005308EB006C08D3005308EA00A40165
:10094800A40A02300A128A15CC260A128A117D08D6
:100958000A128A1528250A128A112E300A128A15B7
:1009680028250A128A11831203136B080A128A15A2
:1009780028250A128A11831203136A080A128A1593
:1009880028250A128A1117300A128A156F250A12A9
:100998008A11831203135708A9005608A8000A12DF
:1009A8008A158C270A128A11831203136E08D30042
:1009B8005308E9006D08D3005308E8006C08D30019
:1009C8005308E70069080A128A1528250A128A11AD
:1009D8008312031368080A128A1528250A128A1135
:1009E8008312031367080A128A1528250A128A1126
:1009F80012300A128A156F250A128A1100308312E2
:100A08000313A800A9000A128A158C270A128A1152
:100A180053300A128A1528250A128A114F300A12F1
:100A28008A1528250A128A1153300A128A15282590
:100A38000A128A1116300A128A156F250A128A11AB
:100A48001030831203136002031C2B2D2C2D302D24
:100A5800E001831603130C168312861C342D352DE2
:100A6800A72BFB01E4018601EF01EF0ADF01DE019C
:100A7800A72B0A128A110E280B1D432D442D4B2D2E
:100A88000130F400740883120313E0070B1183127A
:100A980003138C1E502D512D0B2E0D301A06031DDD
:100AA800562D572D592D023086000D301A06031980
:100AB8005E2D5F2D0B2E1A08F4007408E500912DA9
:100AC800FB01B92DFB01FB0AB92D0230F4007408B3
:100AD800FB00B92D0330F4007408FB00B92D043075
:100AE800F4007408FB00B92D0530F4007408FB000D
:100AF800B92D0630F4007408FB00B92D0730F40056
:100B08007408FB00B92D0830F4007408FB00B92DF7
:100B18000930F4007408FB00B92D6508F400F501EC
:100B28007508003A0319992DB92D7408303A03193C
:100B3800642D013A0319662D033A0319692D013A08
:100B480003196E2D073A0319732D013A0319782DED
:100B5800033A03197D2D013A0319822D0F3A03191F
:100B6800872D013A03198C2DB92D6F03031DBD2D57
:100B7800BE2DCA2D7B08F4007408E4007B08F4003D
:100B88007408DD00EF01DF01DF0A0B2E5F03031D90
:100B9800CE2DCF2DE72D0A30F4007408F0005D0843
:100BA8000A128A15E2240A128A117B07F5007508D1
:100BB80083120313E4007B08F4007408DC00DF01EF
:100BC800DE01DE0A0B2E5E03031DEB2DEC2D0B2E32
:100BD8000A30F4007408F0005C080A128A15E2244E
:100BE8000A128A11F5006430F6007608F0008312C4
:100BF80003135D080A128A15E2240A128A1175077E
:100C08007B07F700770883120313E400E32D0C1E1B
:100C18000E2E0F2E7E2E7C08031D132E142E192E39
:100C28007D089900FC01FC0A7D2E7C03031D1D2E06
:100C38001E2E252E2E3099000230F4007408FC0078
:100C48007D2E02307C06031D2A2E2B2E322E6B0899
:100C580099000330F4007408FC007D2E03307C06F4
:100C6800031D372E382E3F2E6A0899000430F400F1
:100C78007408FC007D2E04307C06031D442E452E8E
:100C88004C2E0D3099000530F4007408FC007D2EC0
:100C980005307C06031D512E522E592E69089900E5
:100CA8000630F4007408FC007D2E06307C06031D17
:100CB8005E2E5F2E662E680899000730F4007408CF
:100CC800FC007D2E07307C06031D6B2E6C2E732EC8
:100CD800670899000830F4007408FC007D2E08307D
:100CE8007C06031D782E792E7D2E0D309900FC018F
:100CF8007D2E0C127A088A0079088400780E830009
:100D0800FE0E7E0E090083120313A800280803199B
:100D18008E2E8F2EA32EA31F922E932EA32E200944
:100D2800AA002109AB002209AC002309AD00AA0AD8
:100D38000319AB0A0319AC0A0319AD0AAB2E230831
:100D4800AD002208AC002108AB002008AA00230847
:100D5800220421042004031DB22EB32EBC2E003021
:100D6800A3000030A2000030A1000030A000422FF4
:100D78009630A4002408A900CE2E0130A40024082F
:100D8800A90701300310AD0CAC0CAB0CAA0CFF3E4C
:100D9800031DC62EFE302D05031DD32ED42EC12EC5
:100DA800F02E0130A4002408A9070130AA0700305A
:100DB80003180130AB07003003180130AC070030CE
:100DC80003180130AD0701300310AD0CAC0CAB0CAF
:100DD800AA0CFF3E031DE82EFF302D05031DF52E3E
:100DE800F62ED52E022F0130A9020130A4000310DF
:100DF800AA0DAB0DAC0DAD0DA40BFB2EAC1B052F36
:100E0800062F0C2F0230290203180B2F0C2FF72E58
:100E180029180F2F102F182FFF30AA05FF30AB0508
:100E28007F30AC05FF30AD050310A90C2908A400DC
:100E3800A501A601A70118300310A40DA50DA60D44
:100E4800A70DFF3E031D202F2408AA042508AB0484
:100E58002608AC042708AD0428080319342F352FB9
:100E68003A2FA31F382F392F3A2FAD172D08A3007B
:100E78002C08A2002B08A1002A08A00008000310D3
:100E8800831203134A0D4B0DCC004C08D2005208B4
:100E9800031D4F2F502F592F0030CB000030CA00B0
:100EA8000030C9000030C800BE2F4808CC004908EF
:100EB800CD004A08CE004B08CF001F300310CF0CDE
:100EC800CE0CCD0CCC0CFF3E031D622F4C08D0007D
:100ED8005008D100CA17FF30C805FF30C905FF30D8
:100EE800CA050030CB059630D202D21F7C2F7D2F49
:100EF800972F5208803A973E0318832F842F852F07
:100F0800502F01300310CB0CCA0CC90CC80CFF3E83
:100F1800031D862F0130CC004C08D207031D952FE6
:100F2800962F852FAE2F20305202031C9C2F9D2F09
:100F3800A92F502F0130CC000310C80DC90DCA0DC0
:100F4800CB0DCC0BA02F0130D2025208031DAD2FC0
:100F5800AE2F9E2F51080319B22FB32FBE2FC809E9
:100F6800C909CA09CB09C80A0319C90A0319CA0A4F
:100F78000319CB0A08002830831203139400831640
:100F880003139101831203132E08B2002F08B30034
:100F98003008B4003108B50002300310B20DB30DAB
:100FA800B40DB50DFF3E031DD12F3508A30034083D
:100FB800A2003308A1003208A0000030A7007A3050
:100FC800A6001230A5000030A4000A128A152427B2
:100FD8000A128A11831203132008FF3E8316031393
:100FE8009300940187150716080083120313A000C5
:100FF800200888000800013408308A000408840AA0
:10100800820700342034533431343A3420342034C5
:101018002034533432343A34203420342034533496
:1010280033343A340034DF34433420342034003449
:0610380076342034003480
:10192A0064008001840A0406031900340406962C14
:10193A000A128A15B9240A128A1583160313111476
:10194A0008000A128A15B9240A128A158316031383
:10195A00111508000A128A15B9240A128A15831267
:10196A000313200893000800831603131419BE2CCE
:10197A00BF2CB92C11081F39031DC42CC52CB92C36
:10198A00080000300A128A150C250A128A1501303D
:10199A000A128A150C250A128A15080000308312C9
:1019AA00031357021A3003195602031CDD2CDE2CCE
:1019BA00E02C0514E12C05100800F300F201731C59
:1019CA00E72CE82CEC2C7008F1007108F2070310E0
:1019DA00F00D0310F30C7308031DF42CF52CE42C02
:1019EA007208080083120313851406308312031346
:1019FA00A2001330A100AD30A000A00B022DA10B54
:101A0A00022DA20B022D83120313851008008312E4
:101A1A000313A300091023080A128A11F9270A12CC
:101A2A008A15831203138914063083120313A20042
:101A3A002F30A100A10B1F2DA20B1F2D242D8312C5
:101A4A0003138910080083120313A2002208A100BD
:101A5A002108A3002308A1002108A40009142408CE
:101A6A000A128A11F9270A128A1583120313891492
:101A7A000C3083120313A100A10B412D0000831225
:101A8A0003138910080083120313A401A501201C63
:101A9A004F2D502D562D2208A4070318A50A2308F6
:101AAA00A50701300310A20DA30DFF3E031D572DFC
:101ABA0001300310A10CA00CFF3E031D5E2D20086F
:101ACA002104031D692D6A2D4C2D2508A100240827
:101ADA00A000080083120313A700A501A6018A2DFE
:101AEA002508270784000A128A1500200A128A1577
:101AFA000A128A1528250A128A150130831203133D
:101B0A00A5070318A60A0030A60725082707840098
:101B1A000A128A1500200A128A15003A031D962D08
:101B2A00972D752D080083120313A800A401A5019F
:101B3A002008A200A3012208A6002308A700281C47
:101B4A00A72DA82DAE2D2608A4070318A50A270835
:101B5A00A50701300310A60DA70DFF3E031DAF2DEB
:101B6A000310A80C2808031DBB2DBC2DA42D250885
:101B7A00A1002408A00008000A128A15B9240A1232
:101B8A008A158316031391150A128A15B9240A12A3
:101B9A008A15831203131308A200A3012208A400C2
:101BAA002308A5000A128A15B9240A128A15831273
:101BBA00031320032104031DE32DE42DE82D8316CE
:101BCA0003139112EB2D8316031391161116831228
:101BDA0003132508A1002408A00008008316031394
:101BEA000F178F160F160F14831603178801890112
:101BFA008316031385018801890186018312031361
:101C0A00850186018801880189018B170B178B16BC
:101C1A000B11831603131812181583160317871549
:101C2A00CF308316031399009A018312031398176E
:101C3A001813181683160313981681128111073088
:101C4A0081040A308312031381000030B10001308D
:101C5A00B0008630AF00A030AE000A128A11BF274A
:101C6A000A128A15080083120313A501A601200887
:101C7A0021040319412E422E792EA701A70A502EBC
:101C8A0001300310A00DA10DFF3E031D462E0130A9
:101C9A00A4002408A707A11F532E542E452E013055
:101CAA000310A50DA60DFF3E031D552E2108230284
:101CBA00031D612E20082202031C642E652E6C2E41
:101CCA002008A2022108031CA303A3022514013041
:101CDA000310A10CA00CFF3E031D6D2E0130A702BC
:101CEA00031D782E792E542E2608A1002508A0005F
:101CFA00080000300A128A11F9270A128A151A30C6
:101D0A0083120313A500F730A400A40B8A2EA50B97
:101D1A008A2E8F2E30300A128A150C250A128A153D
:101D2A00073083120313A5007C30A400A40B9B2E5A
:101D3A00A50B9B2E000030300A128A150C250A12B8
:101D4A008A15413083120313A400A40BAA2EAD2EC8
:101D5A0030300A128A150C250A128A153C300A12EA
:101D6A008A150C250A128A1508300A128A150C25BA
:101D7A000A128A1501300A128A150C250A128A15C6
:101D8A0006300A128A150C250A128A1508008312CF
:101D9A000313A7002703031DD32ED42EF92E2408DC
:101DAA007F3EA5002508AA002A08A50004300310D2
:101DBA00A50CFF3E031DDC2E2508A6002608A80058
:101DCA002A080F39A5002508A90028080A128A1529
:101DDA000C250A128A158312031329080A128A1576
:101DEA000C250A128A15232F02302706031DFE2E00
:101DFA00FF2E232F2408BF3EA5002508AA002A0883
:101E0A00A50004300310A50CFF3E031D072F25086B
:101E1A00A6002608A8002A08F039A5002508A90066
:101E2A0028080A128A150C250A128A158312031326
:101E3A0029080A128A150C250A128A150800003088
:101E4A0083120313AC000030AB000030AA0000304C
:101E5A00A90023082204210420040319352F362F50
:101E6A00832FAD01AD0A462F0130A8000310A00D43
:101E7A00A10DA20DA30DA80B3B2F0130A800280825
:101E8A00AD07A31F492F4A2F392F0130A80003108D
:101E9A00A90DAA0DAB0DAC0DA80B4C2F23082702D8
:101EAA00031D612F22082602031D612F2108250226
:101EBA00031D612F20082402031C642F652F742F31
:101ECA002008A4022108031C210FA5022208031CD2
:101EDA00220FA6022308031C230FA702291401308C
:101EEA000310A30CA20CA10CA00CFF3E031D752F1E
:101EFA000130AD02031D822F832F4A2F2C08A30025
:101F0A002B08A2002A08A1002908A00008008312B1
:101F1A0003132908AD002808AC006430A000003083
:101F2A00A1002D08A3002C08A2000A128A1538263F
:101F3A000A128A15831203132008AA002A08EE003F
:101F4A006E08AA00AB012A08A0002B08A1009C3049
:101F5A00A200FF30A3000A128A1548250A128A1520
:101F6A00831203132C082007AC002D0803182D0A2E
:101F7A002107AD000A30A0000030A1002D08A300FF
:101F8A002C08A2000A128A1538260A128A15831208
:101F9A0003132008AA002A08ED006D08AA00AB0165
:101FAA002A08A0002B08A100F630A200FF30A300E7
:101FBA000A128A1548250A128A15831203132C0855
:101FCA002007AC002D0803182D0A2107AD002C08A4
:101FDA00AA002A08EC006E08303EAA002A08EE0081
:101FEA006D08303EAA002A08ED006C08303EAA00AF
:061FFA002A08EC000800BB
:04400E00C420FF3F8C
:00000001FF
